{
  "_format": "hh-sol-artifact-1",
  "contractName": "GigaMinter",
  "sourceName": "src/contracts/GigaMinter.sol",
  "abi": [
    {
      "inputs": [
        {
          "internalType": "address",
          "name": "_gigaAdmin",
          "type": "address"
        },
        {
          "internalType": "address",
          "name": "_schoolNft",
          "type": "address"
        },
        {
          "internalType": "address",
          "name": "_collectorNft",
          "type": "address"
        },
        {
          "internalType": "address",
          "name": "_escrow",
          "type": "address"
        }
      ],
      "stateMutability": "nonpayable",
      "type": "constructor"
    },
    {
      "anonymous": false,
      "inputs": [
        {
          "indexed": true,
          "internalType": "uint256",
          "name": "_tokenId",
          "type": "uint256"
        },
        {
          "indexed": true,
          "internalType": "address",
          "name": "_schoolNftTo",
          "type": "address"
        },
        {
          "indexed": true,
          "internalType": "address",
          "name": "_collectorNftTo",
          "type": "address"
        }
      ],
      "name": "NFTMinted",
      "type": "event"
    },
    {
      "anonymous": false,
      "inputs": [
        {
          "indexed": true,
          "internalType": "address",
          "name": "previousOwner",
          "type": "address"
        },
        {
          "indexed": true,
          "internalType": "address",
          "name": "newOwner",
          "type": "address"
        }
      ],
      "name": "OwnershipTransferred",
      "type": "event"
    },
    {
      "inputs": [],
      "name": "collectorNft",
      "outputs": [
        {
          "internalType": "contract INft",
          "name": "",
          "type": "address"
        }
      ],
      "stateMutability": "view",
      "type": "function"
    },
    {
      "inputs": [],
      "name": "escrowContract",
      "outputs": [
        {
          "internalType": "address payable",
          "name": "",
          "type": "address"
        }
      ],
      "stateMutability": "view",
      "type": "function"
    },
    {
      "inputs": [
        {
          "internalType": "string",
          "name": "_schoolId",
          "type": "string"
        },
        {
          "internalType": "address",
          "name": "_schoolNftTo",
          "type": "address"
        },
        {
          "internalType": "address",
          "name": "_collectorNftTo",
          "type": "address"
        },
        {
          "internalType": "string[8]",
          "name": "_values",
          "type": "string[8]"
        }
      ],
      "name": "mintNft",
      "outputs": [],
      "stateMutability": "nonpayable",
      "type": "function"
    },
    {
      "inputs": [
        {
          "internalType": "bytes[]",
          "name": "data",
          "type": "bytes[]"
        }
      ],
      "name": "multicall",
      "outputs": [
        {
          "internalType": "bytes[]",
          "name": "results",
          "type": "bytes[]"
        }
      ],
      "stateMutability": "nonpayable",
      "type": "function"
    },
    {
      "inputs": [],
      "name": "owner",
      "outputs": [
        {
          "internalType": "address",
          "name": "",
          "type": "address"
        }
      ],
      "stateMutability": "view",
      "type": "function"
    },
    {
      "inputs": [],
      "name": "renounceOwnership",
      "outputs": [],
      "stateMutability": "nonpayable",
      "type": "function"
    },
    {
      "inputs": [],
      "name": "schoolNft",
      "outputs": [
        {
          "internalType": "contract INft",
          "name": "",
          "type": "address"
        }
      ],
      "stateMutability": "view",
      "type": "function"
    },
    {
      "inputs": [
        {
          "internalType": "address",
          "name": "newOwner",
          "type": "address"
        }
      ],
      "name": "transferOwnership",
      "outputs": [],
      "stateMutability": "nonpayable",
      "type": "function"
    }
  ],
  "bytecode": "0x608060405234801561001057600080fd5b50604051610c5e380380610c5e83398101604081905261002f916100f3565b61003833610087565b600180546001600160a01b038086166001600160a01b03199283161790925560028054858416908316179055600380549284169290911691909117905561007e84610087565b50505050610147565b600080546001600160a01b038381166001600160a01b0319831681178455604051919092169283917f8be0079c531659141344cd1fd0a4f28419497f9722a3daafe3b4186f6b6457e09190a35050565b80516001600160a01b03811681146100ee57600080fd5b919050565b6000806000806080858703121561010957600080fd5b610112856100d7565b9350610120602086016100d7565b925061012e604086016100d7565b915061013c606086016100d7565b905092959194509250565b610b08806101566000396000f3fe608060405234801561001057600080fd5b50600436106100885760003560e01c806391203cf51161005b57806391203cf5146100eb578063ac9650d8146100fe578063e42a96e71461011e578063f2fde38b1461013157600080fd5b8063310776561461008d5780635682dd68146100bd578063715018a6146100d25780638da5cb5b146100da575b600080fd5b6001546100a0906001600160a01b031681565b6040516001600160a01b0390911681526020015b60405180910390f35b6100d06100cb366004610744565b610144565b005b6100d06102e0565b6000546001600160a01b03166100a0565b6002546100a0906001600160a01b031681565b61011161010c366004610824565b6102f4565b6040516100b491906108e9565b6003546100a0906001600160a01b031681565b6100d061013f36600461094b565b6103e9565b61014c610462565b60015460405163076e348560e01b81526000916001600160a01b03169063076e34859061018190889088908790600401610966565b6020604051808303816000875af11580156101a0573d6000803e3d6000fd5b505050506040513d601f19601f820116820180604052508101906101c491906109d8565b60025460405163076e348560e01b81529192506000916001600160a01b039091169063076e3485906101fe90899088908890600401610966565b6020604051808303816000875af115801561021d573d6000803e3d6000fd5b505050506040513d601f19601f8201168201806040525081019061024191906109d8565b90508082146102975760405162461bcd60e51b815260206004820152601c60248201527f476967614d696e7465723a20746f6b656e4964206d69736d617463680000000060448201526064015b60405180910390fd5b836001600160a01b0316856001600160a01b0316837f331d023184405eeb32d693804ea42e04df180882b4d7345e4e5f5e8cbaf4c5b360405160405180910390a4505050505050565b6102e8610462565b6102f260006104bc565b565b60608167ffffffffffffffff81111561030f5761030f61065b565b60405190808252806020026020018201604052801561034257816020015b606081526020019060019003908161032d5790505b50905060005b828110156103e2576103b230858584818110610366576103666109f1565b90506020028101906103789190610a07565b8080601f01602080910402602001604051908101604052809392919081815260200183838082843760009201919091525061050c92505050565b8282815181106103c4576103c46109f1565b602002602001018190525080806103da90610a55565b915050610348565b5092915050565b6103f1610462565b6001600160a01b0381166104565760405162461bcd60e51b815260206004820152602660248201527f4f776e61626c653a206e6577206f776e657220697320746865207a65726f206160448201526564647265737360d01b606482015260840161028e565b61045f816104bc565b50565b6000546001600160a01b031633146102f25760405162461bcd60e51b815260206004820181905260248201527f4f776e61626c653a2063616c6c6572206973206e6f7420746865206f776e6572604482015260640161028e565b600080546001600160a01b038381166001600160a01b0319831681178455604051919092169283917f8be0079c531659141344cd1fd0a4f28419497f9722a3daafe3b4186f6b6457e09190a35050565b60606105318383604051806060016040528060278152602001610aac60279139610538565b9392505050565b6060600080856001600160a01b0316856040516105559190610a7c565b600060405180830381855af49150503d8060008114610590576040519150601f19603f3d011682016040523d82523d6000602084013e610595565b606091505b50915091506105a6868383876105b0565b9695505050505050565b6060831561061f578251600003610618576001600160a01b0385163b6106185760405162461bcd60e51b815260206004820152601d60248201527f416464726573733a2063616c6c20746f206e6f6e2d636f6e7472616374000000604482015260640161028e565b5081610629565b6106298383610631565b949350505050565b8151156106415781518083602001fd5b8060405162461bcd60e51b815260040161028e9190610a98565b634e487b7160e01b600052604160045260246000fd5b604051610100810167ffffffffffffffff811182821017156106955761069561065b565b60405290565b600082601f8301126106ac57600080fd5b813567ffffffffffffffff808211156106c7576106c761065b565b604051601f8301601f19908116603f011681019082821181831017156106ef576106ef61065b565b8160405283815286602085880101111561070857600080fd5b836020870160208301376000602085830101528094505050505092915050565b80356001600160a01b038116811461073f57600080fd5b919050565b6000806000806080858703121561075a57600080fd5b843567ffffffffffffffff8082111561077257600080fd5b61077e8883890161069b565b95506020915061078f828801610728565b945061079d60408801610728565b93506060870135818111156107b157600080fd5b8701601f810189136107c257600080fd5b6107ca610671565b8061010083018b8111156107dd57600080fd5b835b81811015610811578035868111156107f75760008081fd5b6108038e82880161069b565b8552509286019286016107df565b5050809550505050505092959194509250565b6000806020838503121561083757600080fd5b823567ffffffffffffffff8082111561084f57600080fd5b818501915085601f83011261086357600080fd5b81358181111561087257600080fd5b8660208260051b850101111561088757600080fd5b60209290920196919550909350505050565b60005b838110156108b457818101518382015260200161089c565b50506000910152565b600081518084526108d5816020860160208601610899565b601f01601f19169290920160200192915050565b6000602080830181845280855180835260408601915060408160051b870101925083870160005b8281101561093e57603f1988860301845261092c8583516108bd565b94509285019290850190600101610910565b5092979650505050505050565b60006020828403121561095d57600080fd5b61053182610728565b60608152600061097960608301866108bd565b6001600160a01b03851660208481019190915283820360408501528161010081018660005b60088110156109c95785830384526109b78383516108bd565b9385019392509084019060010161099e565b50909998505050505050505050565b6000602082840312156109ea57600080fd5b5051919050565b634e487b7160e01b600052603260045260246000fd5b6000808335601e19843603018112610a1e57600080fd5b83018035915067ffffffffffffffff821115610a3957600080fd5b602001915036819003821315610a4e57600080fd5b9250929050565b600060018201610a7557634e487b7160e01b600052601160045260246000fd5b5060010190565b60008251610a8e818460208701610899565b9190910192915050565b60208152600061053160208301846108bd56fe416464726573733a206c6f772d6c6576656c2064656c65676174652063616c6c206661696c6564a26469706673582212206a25549c8c5bc58ba77575951e7268631954609d4b77f0a526fbbc0160cd748764736f6c63430008110033",
  "linkReferences": {},
  "deployedLinkReferences": {}
}