{
  "_format": "hh-sol-artifact-1",
  "contractName": "Nft",
  "sourceName": "src/contracts/Nft.sol",
  "abi": [
    {
      "inputs": [
        {
          "internalType": "string",
          "name": "name",
          "type": "string"
        },
        {
          "internalType": "string",
          "name": "symbol",
          "type": "string"
        },
        {
          "internalType": "address",
          "name": "_owner",
          "type": "address"
        }
      ],
      "stateMutability": "nonpayable",
      "type": "constructor"
    },
    {
      "anonymous": false,
      "inputs": [
        {
          "indexed": false,
          "internalType": "address",
          "name": "previousAdmin",
          "type": "address"
        },
        {
          "indexed": false,
          "internalType": "address",
          "name": "newAdmin",
          "type": "address"
        }
      ],
      "name": "AdminChanged",
      "type": "event"
    },
    {
      "anonymous": false,
      "inputs": [
        {
          "indexed": true,
          "internalType": "address",
          "name": "owner",
          "type": "address"
        },
        {
          "indexed": true,
          "internalType": "address",
          "name": "approved",
          "type": "address"
        },
        {
          "indexed": true,
          "internalType": "uint256",
          "name": "tokenId",
          "type": "uint256"
        }
      ],
      "name": "Approval",
      "type": "event"
    },
    {
      "anonymous": false,
      "inputs": [
        {
          "indexed": true,
          "internalType": "address",
          "name": "owner",
          "type": "address"
        },
        {
          "indexed": true,
          "internalType": "address",
          "name": "operator",
          "type": "address"
        },
        {
          "indexed": false,
          "internalType": "bool",
          "name": "approved",
          "type": "bool"
        }
      ],
      "name": "ApprovalForAll",
      "type": "event"
    },
    {
      "anonymous": false,
      "inputs": [
        {
          "indexed": false,
          "internalType": "uint256",
          "name": "_fromTokenId",
          "type": "uint256"
        },
        {
          "indexed": false,
          "internalType": "uint256",
          "name": "_toTokenId",
          "type": "uint256"
        }
      ],
      "name": "BatchMetadataUpdate",
      "type": "event"
    },
    {
      "anonymous": false,
      "inputs": [
        {
          "indexed": true,
          "internalType": "address",
          "name": "beacon",
          "type": "address"
        }
      ],
      "name": "BeaconUpgraded",
      "type": "event"
    },
    {
      "anonymous": false,
      "inputs": [
        {
          "indexed": false,
          "internalType": "uint8",
          "name": "version",
          "type": "uint8"
        }
      ],
      "name": "Initialized",
      "type": "event"
    },
    {
      "anonymous": false,
      "inputs": [
        {
          "indexed": false,
          "internalType": "uint256",
          "name": "_tokenId",
          "type": "uint256"
        }
      ],
      "name": "MetadataUpdate",
      "type": "event"
    },
    {
      "anonymous": false,
      "inputs": [
        {
          "indexed": true,
          "internalType": "uint256",
          "name": "tokenId",
          "type": "uint256"
        },
        {
          "indexed": false,
          "internalType": "string",
          "name": "name",
          "type": "string"
        },
        {
          "indexed": false,
          "internalType": "string",
          "name": "location",
          "type": "string"
        },
        {
          "indexed": false,
          "internalType": "string",
          "name": "lat",
          "type": "string"
        },
        {
          "indexed": false,
          "internalType": "string",
          "name": "lon",
          "type": "string"
        },
        {
          "indexed": false,
          "internalType": "bool",
          "name": "connectivity",
          "type": "bool"
        },
        {
          "indexed": false,
          "internalType": "string",
          "name": "covergeAvailability",
          "type": "string"
        }
      ],
      "name": "NftInfoUpdated",
      "type": "event"
    },
    {
      "anonymous": false,
      "inputs": [
        {
          "indexed": true,
          "internalType": "address",
          "name": "previousOwner",
          "type": "address"
        },
        {
          "indexed": true,
          "internalType": "address",
          "name": "newOwner",
          "type": "address"
        }
      ],
      "name": "OwnershipTransferred",
      "type": "event"
    },
    {
      "anonymous": false,
      "inputs": [
        {
          "indexed": true,
          "internalType": "address",
          "name": "from",
          "type": "address"
        },
        {
          "indexed": true,
          "internalType": "address",
          "name": "to",
          "type": "address"
        },
        {
          "indexed": true,
          "internalType": "uint256",
          "name": "tokenId",
          "type": "uint256"
        }
      ],
      "name": "Transfer",
      "type": "event"
    },
    {
      "anonymous": false,
      "inputs": [
        {
          "indexed": true,
          "internalType": "address",
          "name": "implementation",
          "type": "address"
        }
      ],
      "name": "Upgraded",
      "type": "event"
    },
    {
      "anonymous": false,
      "inputs": [
        {
          "indexed": true,
          "internalType": "address",
          "name": "minter",
          "type": "address"
        }
      ],
      "name": "mintersAdded",
      "type": "event"
    },
    {
      "inputs": [
        {
          "internalType": "address",
          "name": "_minter",
          "type": "address"
        }
      ],
      "name": "addMinter",
      "outputs": [],
      "stateMutability": "nonpayable",
      "type": "function"
    },
    {
      "inputs": [
        {
          "internalType": "address",
          "name": "to",
          "type": "address"
        },
        {
          "internalType": "uint256",
          "name": "tokenId",
          "type": "uint256"
        }
      ],
      "name": "approve",
      "outputs": [],
      "stateMutability": "nonpayable",
      "type": "function"
    },
    {
      "inputs": [
        {
          "internalType": "address",
          "name": "owner",
          "type": "address"
        }
      ],
      "name": "balanceOf",
      "outputs": [
        {
          "internalType": "uint256",
          "name": "",
          "type": "uint256"
        }
      ],
      "stateMutability": "view",
      "type": "function"
    },
    {
      "inputs": [
        {
          "internalType": "uint256",
          "name": "tokenId",
          "type": "uint256"
        }
      ],
      "name": "getApproved",
      "outputs": [
        {
          "internalType": "address",
          "name": "",
          "type": "address"
        }
      ],
      "stateMutability": "view",
      "type": "function"
    },
    {
      "inputs": [
        {
          "internalType": "string",
          "name": "name",
          "type": "string"
        },
        {
          "internalType": "string",
          "name": "symbol",
          "type": "string"
        }
      ],
      "name": "initialize",
      "outputs": [],
      "stateMutability": "nonpayable",
      "type": "function"
    },
    {
      "inputs": [
        {
          "internalType": "address",
          "name": "owner",
          "type": "address"
        },
        {
          "internalType": "address",
          "name": "operator",
          "type": "address"
        }
      ],
      "name": "isApprovedForAll",
      "outputs": [
        {
          "internalType": "bool",
          "name": "",
          "type": "bool"
        }
      ],
      "stateMutability": "view",
      "type": "function"
    },
    {
      "inputs": [
        {
          "internalType": "address",
          "name": "_minter",
          "type": "address"
        }
      ],
      "name": "isMinter",
      "outputs": [
        {
          "internalType": "bool",
          "name": "",
          "type": "bool"
        }
      ],
      "stateMutability": "view",
      "type": "function"
    },
    {
      "inputs": [],
      "name": "name",
      "outputs": [
        {
          "internalType": "string",
          "name": "",
          "type": "string"
        }
      ],
      "stateMutability": "view",
      "type": "function"
    },
    {
      "inputs": [
        {
          "internalType": "uint256",
          "name": "",
          "type": "uint256"
        }
      ],
      "name": "nftInfo",
      "outputs": [
        {
          "internalType": "string",
          "name": "name",
          "type": "string"
        },
        {
          "internalType": "string",
          "name": "location",
          "type": "string"
        },
        {
          "internalType": "string",
          "name": "lat",
          "type": "string"
        },
        {
          "internalType": "string",
          "name": "lon",
          "type": "string"
        },
        {
          "internalType": "bool",
          "name": "connectivity",
          "type": "bool"
        },
        {
          "internalType": "string",
          "name": "covergeAvailability",
          "type": "string"
        }
      ],
      "stateMutability": "view",
      "type": "function"
    },
    {
      "inputs": [],
      "name": "owner",
      "outputs": [
        {
          "internalType": "address",
          "name": "",
          "type": "address"
        }
      ],
      "stateMutability": "view",
      "type": "function"
    },
    {
      "inputs": [
        {
          "internalType": "uint256",
          "name": "tokenId",
          "type": "uint256"
        }
      ],
      "name": "ownerOf",
      "outputs": [
        {
          "internalType": "address",
          "name": "",
          "type": "address"
        }
      ],
      "stateMutability": "view",
      "type": "function"
    },
    {
      "inputs": [],
      "name": "proxiableUUID",
      "outputs": [
        {
          "internalType": "bytes32",
          "name": "",
          "type": "bytes32"
        }
      ],
      "stateMutability": "view",
      "type": "function"
    },
    {
      "inputs": [],
      "name": "renounceOwnership",
      "outputs": [],
      "stateMutability": "nonpayable",
      "type": "function"
    },
    {
      "inputs": [
        {
          "internalType": "address",
          "name": "_to",
          "type": "address"
        },
        {
          "internalType": "string",
          "name": "_tokenURI",
          "type": "string"
        }
      ],
      "name": "safeMint",
      "outputs": [
        {
          "internalType": "uint256",
          "name": "",
          "type": "uint256"
        }
      ],
      "stateMutability": "nonpayable",
      "type": "function"
    },
    {
      "inputs": [
        {
          "internalType": "address",
          "name": "from",
          "type": "address"
        },
        {
          "internalType": "address",
          "name": "to",
          "type": "address"
        },
        {
          "internalType": "uint256",
          "name": "tokenId",
          "type": "uint256"
        }
      ],
      "name": "safeTransferFrom",
      "outputs": [],
      "stateMutability": "nonpayable",
      "type": "function"
    },
    {
      "inputs": [
        {
          "internalType": "address",
          "name": "from",
          "type": "address"
        },
        {
          "internalType": "address",
          "name": "to",
          "type": "address"
        },
        {
          "internalType": "uint256",
          "name": "tokenId",
          "type": "uint256"
        },
        {
          "internalType": "bytes",
          "name": "data",
          "type": "bytes"
        }
      ],
      "name": "safeTransferFrom",
      "outputs": [],
      "stateMutability": "nonpayable",
      "type": "function"
    },
    {
      "inputs": [
        {
          "internalType": "address",
          "name": "operator",
          "type": "address"
        },
        {
          "internalType": "bool",
          "name": "approved",
          "type": "bool"
        }
      ],
      "name": "setApprovalForAll",
      "outputs": [],
      "stateMutability": "nonpayable",
      "type": "function"
    },
    {
      "inputs": [
        {
          "internalType": "bytes4",
          "name": "interfaceId",
          "type": "bytes4"
        }
      ],
      "name": "supportsInterface",
      "outputs": [
        {
          "internalType": "bool",
          "name": "",
          "type": "bool"
        }
      ],
      "stateMutability": "view",
      "type": "function"
    },
    {
      "inputs": [],
      "name": "symbol",
      "outputs": [
        {
          "internalType": "string",
          "name": "",
          "type": "string"
        }
      ],
      "stateMutability": "view",
      "type": "function"
    },
    {
      "inputs": [
        {
          "internalType": "uint256",
          "name": "tokenId",
          "type": "uint256"
        }
      ],
      "name": "tokenURI",
      "outputs": [
        {
          "internalType": "string",
          "name": "",
          "type": "string"
        }
      ],
      "stateMutability": "view",
      "type": "function"
    },
    {
      "inputs": [],
      "name": "totalSupply",
      "outputs": [
        {
          "internalType": "uint256",
          "name": "",
          "type": "uint256"
        }
      ],
      "stateMutability": "view",
      "type": "function"
    },
    {
      "inputs": [
        {
          "internalType": "address",
          "name": "from",
          "type": "address"
        },
        {
          "internalType": "address",
          "name": "to",
          "type": "address"
        },
        {
          "internalType": "uint256",
          "name": "tokenId",
          "type": "uint256"
        }
      ],
      "name": "transferFrom",
      "outputs": [],
      "stateMutability": "nonpayable",
      "type": "function"
    },
    {
      "inputs": [
        {
          "internalType": "address",
          "name": "newOwner",
          "type": "address"
        }
      ],
      "name": "transferOwnership",
      "outputs": [],
      "stateMutability": "nonpayable",
      "type": "function"
    },
    {
      "inputs": [
        {
          "internalType": "uint256",
          "name": "_tokenId",
          "type": "uint256"
        },
        {
          "internalType": "string",
          "name": "_name",
          "type": "string"
        },
        {
          "internalType": "string",
          "name": "_location",
          "type": "string"
        },
        {
          "internalType": "string",
          "name": "_lat",
          "type": "string"
        },
        {
          "internalType": "string",
          "name": "_lon",
          "type": "string"
        },
        {
          "internalType": "bool",
          "name": "_connectivity",
          "type": "bool"
        },
        {
          "internalType": "string",
          "name": "_covergeAvailability",
          "type": "string"
        }
      ],
      "name": "updateNftInfo",
      "outputs": [],
      "stateMutability": "nonpayable",
      "type": "function"
    },
    {
      "inputs": [
        {
          "internalType": "uint256",
          "name": "_tokenId",
          "type": "uint256"
        },
        {
          "internalType": "string",
          "name": "_tokenURI",
          "type": "string"
        }
      ],
      "name": "updateTokenURI",
      "outputs": [],
      "stateMutability": "nonpayable",
      "type": "function"
    },
    {
      "inputs": [
        {
          "internalType": "address",
          "name": "newImplementation",
          "type": "address"
        }
      ],
      "name": "upgradeTo",
      "outputs": [],
      "stateMutability": "nonpayable",
      "type": "function"
    },
    {
      "inputs": [
        {
          "internalType": "address",
          "name": "newImplementation",
          "type": "address"
        },
        {
          "internalType": "bytes",
          "name": "data",
          "type": "bytes"
        }
      ],
      "name": "upgradeToAndCall",
      "outputs": [],
      "stateMutability": "payable",
      "type": "function"
    }
  ],
  "bytecode": "0x60a0604052306080523480156200001557600080fd5b5060405162003307380380620033078339810160408190526200003891620004e3565b62000044838362000058565b6200004f81620001ac565b505050620006ca565b600054610100900460ff1615808015620000795750600054600160ff909116105b80620000a957506200009630620001ff60201b620011c61760201c565b158015620000a9575060005460ff166001145b620001125760405162461bcd60e51b815260206004820152602e60248201527f496e697469616c697a61626c653a20636f6e747261637420697320616c72656160448201526d191e481a5b9a5d1a585b1a5e995960921b60648201526084015b60405180910390fd5b6000805460ff19166001179055801562000136576000805461ff0019166101001790555b6200014283836200020e565b6200014c6200027a565b62000156620002e2565b62000160620002e2565b8015620001a7576000805461ff0019169055604051600181527f7f26b83ff96e1f2b6a682f133852f6798a09c465da95921460cefb38474024989060200160405180910390a15b505050565b61012d80546001600160a01b038381166001600160a01b0319831681179093556040519116919082907f8be0079c531659141344cd1fd0a4f28419497f9722a3daafe3b4186f6b6457e090600090a35050565b6001600160a01b03163b151590565b600054610100900460ff166200026a5760405162461bcd60e51b815260206004820152602b6024820152600080516020620032e783398151915260448201526a6e697469616c697a696e6760a81b606482015260840162000109565b6200027682826200033e565b5050565b600054610100900460ff16620002d65760405162461bcd60e51b815260206004820152602b6024820152600080516020620032e783398151915260448201526a6e697469616c697a696e6760a81b606482015260840162000109565b620002e0620003b7565b565b600054610100900460ff16620002e05760405162461bcd60e51b815260206004820152602b6024820152600080516020620032e783398151915260448201526a6e697469616c697a696e6760a81b606482015260840162000109565b600054610100900460ff166200039a5760405162461bcd60e51b815260206004820152602b6024820152600080516020620032e783398151915260448201526a6e697469616c697a696e6760a81b606482015260840162000109565b6065620003a88382620005fe565b506066620001a78282620005fe565b600054610100900460ff16620004135760405162461bcd60e51b815260206004820152602b6024820152600080516020620032e783398151915260448201526a6e697469616c697a696e6760a81b606482015260840162000109565b620002e033620001ac565b634e487b7160e01b600052604160045260246000fd5b600082601f8301126200044657600080fd5b81516001600160401b03808211156200046357620004636200041e565b604051601f8301601f19908116603f011681019082821181831017156200048e576200048e6200041e565b81604052838152602092508683858801011115620004ab57600080fd5b600091505b83821015620004cf5785820183015181830184015290820190620004b0565b600093810190920192909252949350505050565b600080600060608486031215620004f957600080fd5b83516001600160401b03808211156200051157600080fd5b6200051f8783880162000434565b945060208601519150808211156200053657600080fd5b50620005458682870162000434565b604086015190935090506001600160a01b03811681146200056557600080fd5b809150509250925092565b600181811c908216806200058557607f821691505b602082108103620005a657634e487b7160e01b600052602260045260246000fd5b50919050565b601f821115620001a757600081815260208120601f850160051c81016020861015620005d55750805b601f850160051c820191505b81811015620005f657828155600101620005e1565b505050505050565b81516001600160401b038111156200061a576200061a6200041e565b62000632816200062b845462000570565b84620005ac565b602080601f8311600181146200066a5760008415620006515750858301515b600019600386901b1c1916600185901b178555620005f6565b600085815260208120601f198616915b828110156200069b578886015182559484019460019091019084016200067a565b5085821015620006ba5787850151600019600388901b60f8161c191681555b5050505050600190811b01905550565b608051612be56200070260003960008181610ba201528181610be201528181610dc801528181610e080152610e970152612be56000f3fe60806040526004361061019c5760003560e01c806352d1902d116100ec578063a22cb4651161008a578063c87b56dd11610064578063c87b56dd14610498578063d204c45e146104b8578063e985e9c5146104d8578063f2fde38b1461052157600080fd5b8063a22cb46514610438578063aa271e1a14610458578063b88d4fde1461047857600080fd5b8063715018a6116100c6578063715018a6146103cf5780638da5cb5b146103e457806395d89b4114610403578063983b2d561461041857600080fd5b806352d1902d1461037a5780636352211e1461038f57806370a08231146103af57600080fd5b80631f8bc790116101595780633659cfe6116101335780633659cfe61461030757806342842e0e146103275780634cd88b76146103475780634f1ef2861461036757600080fd5b80631f8bc7901461029557806323b872dd146102c75780632c7d4439146102e757600080fd5b806301ffc9a7146101a157806306fdde03146101d6578063081812fc146101f8578063095ea7b31461023057806318160ddd1461025257806318e97fd114610275575b600080fd5b3480156101ad57600080fd5b506101c16101bc366004612275565b610541565b60405190151581526020015b60405180910390f35b3480156101e257600080fd5b506101eb610552565b6040516101cd91906122e2565b34801561020457600080fd5b506102186102133660046122f5565b6105e4565b6040516001600160a01b0390911681526020016101cd565b34801561023c57600080fd5b5061025061024b36600461232a565b61060b565b005b34801561025e57600080fd5b50610267610725565b6040519081526020016101cd565b34801561028157600080fd5b506102506102903660046123f7565b610736565b3480156102a157600080fd5b506102b56102b03660046122f5565b61074c565b6040516101cd9695949392919061243e565b3480156102d357600080fd5b506102506102e23660046124b4565b610a32565b3480156102f357600080fd5b50610250610302366004612500565b610a63565b34801561031357600080fd5b506102506103223660046125ec565b610b98565b34801561033357600080fd5b506102506103423660046124b4565b610c77565b34801561035357600080fd5b50610250610362366004612607565b610c92565b610250610375366004612661565b610dbe565b34801561038657600080fd5b50610267610e8a565b34801561039b57600080fd5b506102186103aa3660046122f5565b610f3d565b3480156103bb57600080fd5b506102676103ca3660046125ec565b610f9d565b3480156103db57600080fd5b50610250611023565b3480156103f057600080fd5b5061012d546001600160a01b0316610218565b34801561040f57600080fd5b506101eb611037565b34801561042457600080fd5b506102506104333660046125ec565b611046565b34801561044457600080fd5b50610250610453366004612699565b611092565b34801561046457600080fd5b506101c16104733660046125ec565b61109d565b34801561048457600080fd5b506102506104933660046126cc565b6110ab565b3480156104a457600080fd5b506101eb6104b33660046122f5565b6110e3565b3480156104c457600080fd5b506102676104d3366004612661565b6110ee565b3480156104e457600080fd5b506101c16104f3366004612734565b6001600160a01b039182166000908152606a6020908152604080832093909416825291909152205460ff1690565b34801561052d57600080fd5b5061025061053c3660046125ec565b611150565b600061054c826111d5565b92915050565b6060606580546105619061275e565b80601f016020809104026020016040519081016040528092919081815260200182805461058d9061275e565b80156105da5780601f106105af576101008083540402835291602001916105da565b820191906000526020600020905b8154815290600101906020018083116105bd57829003601f168201915b5050505050905090565b60006105ef826111fa565b506000908152606960205260409020546001600160a01b031690565b600061061682610f3d565b9050806001600160a01b0316836001600160a01b0316036106885760405162461bcd60e51b815260206004820152602160248201527f4552433732313a20617070726f76616c20746f2063757272656e74206f776e656044820152603960f91b60648201526084015b60405180910390fd5b336001600160a01b03821614806106a457506106a481336104f3565b6107165760405162461bcd60e51b815260206004820152603d60248201527f4552433732313a20617070726f76652063616c6c6572206973206e6f7420746f60448201527f6b656e206f776e6572206f7220617070726f76656420666f7220616c6c000000606482015260840161067f565b6107208383611259565b505050565b60006107316101615490565b905090565b61073e6112c7565b6107488282611322565b5050565b610162602052600090815260409020805481906107689061275e565b80601f01602080910402602001604051908101604052809291908181526020018280546107949061275e565b80156107e15780601f106107b6576101008083540402835291602001916107e1565b820191906000526020600020905b8154815290600101906020018083116107c457829003601f168201915b5050505050908060010180546107f69061275e565b80601f01602080910402602001604051908101604052809291908181526020018280546108229061275e565b801561086f5780601f106108445761010080835404028352916020019161086f565b820191906000526020600020905b81548152906001019060200180831161085257829003601f168201915b5050505050908060020180546108849061275e565b80601f01602080910402602001604051908101604052809291908181526020018280546108b09061275e565b80156108fd5780601f106108d2576101008083540402835291602001916108fd565b820191906000526020600020905b8154815290600101906020018083116108e057829003601f168201915b5050505050908060030180546109129061275e565b80601f016020809104026020016040519081016040528092919081815260200182805461093e9061275e565b801561098b5780601f106109605761010080835404028352916020019161098b565b820191906000526020600020905b81548152906001019060200180831161096e57829003601f168201915b5050506004840154600585018054949560ff9092169491935091506109af9061275e565b80601f01602080910402602001604051908101604052809291908181526020018280546109db9061275e565b8015610a285780601f106109fd57610100808354040283529160200191610a28565b820191906000526020600020905b815481529060010190602001808311610a0b57829003601f168201915b5050505050905086565b610a3c33826113ed565b610a585760405162461bcd60e51b815260040161067f90612798565b61072083838361146c565b610a6f61015f336115d0565b610a8b5760405162461bcd60e51b815260040161067f906127e5565b6040805160c081018252878152602080820188905281830187905260608201869052841515608083015260a0820184905260008a81526101629091529190912081518291908190610adc908261287a565b5060208201516001820190610af1908261287a565b5060408201516002820190610b06908261287a565b5060608201516003820190610b1b908261287a565b50608082015160048201805460ff191691151591909117905560a08201516005820190610b48908261287a565b50905050877f338cdf02a50e517052dfe030f083fbeffd60321f5347b0fa5843718a4be7ebe9888888888888604051610b869695949392919061243e565b60405180910390a25050505050505050565b6001600160a01b037f0000000000000000000000000000000000000000000000000000000000000000163003610be05760405162461bcd60e51b815260040161067f9061293a565b7f00000000000000000000000000000000000000000000000000000000000000006001600160a01b0316610c29600080516020612b69833981519152546001600160a01b031690565b6001600160a01b031614610c4f5760405162461bcd60e51b815260040161067f90612986565b610c58816115f2565b60408051600080825260208201909252610c74918391906115fa565b50565b610720838383604051806020016040528060008152506110ab565b600054610100900460ff1615808015610cb25750600054600160ff909116105b80610ccc5750303b158015610ccc575060005460ff166001145b610d2f5760405162461bcd60e51b815260206004820152602e60248201527f496e697469616c697a61626c653a20636f6e747261637420697320616c72656160448201526d191e481a5b9a5d1a585b1a5e995960921b606482015260840161067f565b6000805460ff191660011790558015610d52576000805461ff0019166101001790555b610d5c8383611765565b610d64611796565b610d6c6117c5565b610d746117c5565b8015610720576000805461ff0019169055604051600181527f7f26b83ff96e1f2b6a682f133852f6798a09c465da95921460cefb38474024989060200160405180910390a1505050565b6001600160a01b037f0000000000000000000000000000000000000000000000000000000000000000163003610e065760405162461bcd60e51b815260040161067f9061293a565b7f00000000000000000000000000000000000000000000000000000000000000006001600160a01b0316610e4f600080516020612b69833981519152546001600160a01b031690565b6001600160a01b031614610e755760405162461bcd60e51b815260040161067f90612986565b610e7e826115f2565b610748828260016115fa565b6000306001600160a01b037f00000000000000000000000000000000000000000000000000000000000000001614610f2a5760405162461bcd60e51b815260206004820152603860248201527f555550535570677261646561626c653a206d757374206e6f742062652063616c60448201527f6c6564207468726f7567682064656c656761746563616c6c0000000000000000606482015260840161067f565b50600080516020612b6983398151915290565b6000818152606760205260408120546001600160a01b03168061054c5760405162461bcd60e51b8152602060048201526018602482015277115490cdcc8c4e881a5b9d985b1a59081d1bdad95b88125160421b604482015260640161067f565b60006001600160a01b0382166110075760405162461bcd60e51b815260206004820152602960248201527f4552433732313a2061646472657373207a65726f206973206e6f7420612076616044820152683634b21037bbb732b960b91b606482015260840161067f565b506001600160a01b031660009081526068602052604090205490565b61102b6112c7565b61103560006117ec565b565b6060606680546105619061275e565b61104e6112c7565b61105a61015f8261183f565b506040516001600160a01b038216907fcd5f699da5e499530ccc53d8f59d53d52729a153dd75d34e192a6ab950c1e26a90600090a250565b610748338383611854565b600061054c61015f836115d0565b6110b533836113ed565b6110d15760405162461bcd60e51b815260040161067f90612798565b6110dd84848484611922565b50505050565b606061054c82611955565b60006110fc61015f336115d0565b6111185760405162461bcd60e51b815260040161067f906127e5565b60006111246101615490565b905061113561016180546001019055565b61113f8482611a5d565b6111498184611322565b9392505050565b6111586112c7565b6001600160a01b0381166111bd5760405162461bcd60e51b815260206004820152602660248201527f4f776e61626c653a206e6577206f776e657220697320746865207a65726f206160448201526564647265737360d01b606482015260840161067f565b610c74816117ec565b6001600160a01b03163b151590565b60006001600160e01b03198216632483248360e11b148061054c575061054c82611a77565b6000818152606760205260409020546001600160a01b0316610c745760405162461bcd60e51b8152602060048201526018602482015277115490cdcc8c4e881a5b9d985b1a59081d1bdad95b88125160421b604482015260640161067f565b600081815260696020526040902080546001600160a01b0319166001600160a01b038416908117909155819061128e82610f3d565b6001600160a01b03167f8c5be1e5ebec7d5bd14f71427d1e84f3dd0314c0f7b2291e5b200ac8c7c3b92560405160405180910390a45050565b61012d546001600160a01b031633146110355760405162461bcd60e51b815260206004820181905260248201527f4f776e61626c653a2063616c6c6572206973206e6f7420746865206f776e6572604482015260640161067f565b6000828152606760205260409020546001600160a01b031661139d5760405162461bcd60e51b815260206004820152602e60248201527f45524337323155524953746f726167653a2055524920736574206f66206e6f6e60448201526d32bc34b9ba32b73a103a37b5b2b760911b606482015260840161067f565b60008281526097602052604090206113b5828261287a565b506040518281527ff8e1a15aba9398e019f0b49df1a4fde98ee17ae345cb5f6b5e2c27f5033e8ce79060200160405180910390a15050565b6000806113f983610f3d565b9050806001600160a01b0316846001600160a01b0316148061144057506001600160a01b038082166000908152606a602090815260408083209388168352929052205460ff165b806114645750836001600160a01b0316611459846105e4565b6001600160a01b0316145b949350505050565b826001600160a01b031661147f82610f3d565b6001600160a01b0316146114a55760405162461bcd60e51b815260040161067f906129d2565b6001600160a01b0382166115075760405162461bcd60e51b8152602060048201526024808201527f4552433732313a207472616e7366657220746f20746865207a65726f206164646044820152637265737360e01b606482015260840161067f565b826001600160a01b031661151a82610f3d565b6001600160a01b0316146115405760405162461bcd60e51b815260040161067f906129d2565b600081815260696020908152604080832080546001600160a01b03199081169091556001600160a01b0387811680865260688552838620805460001901905590871680865283862080546001019055868652606790945282852080549092168417909155905184937fddf252ad1be2c89b69c2b068fc378daa952ba7f163c4a11628f55a4df523b3ef91a4505050565b6001600160a01b03811660009081526001830160205260408120541515611149565b610c746112c7565b7f4910fdfa16fed3260ed0e7147f7cc6da11a60208b5b9406d12a635614ffd91435460ff161561162d5761072083611ac7565b826001600160a01b03166352d1902d6040518163ffffffff1660e01b8152600401602060405180830381865afa925050508015611687575060408051601f3d908101601f1916820190925261168491810190612a17565b60015b6116ea5760405162461bcd60e51b815260206004820152602e60248201527f45524331393637557067726164653a206e657720696d706c656d656e7461746960448201526d6f6e206973206e6f74205555505360901b606482015260840161067f565b600080516020612b6983398151915281146117595760405162461bcd60e51b815260206004820152602960248201527f45524331393637557067726164653a20756e737570706f727465642070726f786044820152681a58589b195555525160ba1b606482015260840161067f565b50610720838383611b63565b600054610100900460ff1661178c5760405162461bcd60e51b815260040161067f90612a30565b6107488282611b88565b600054610100900460ff166117bd5760405162461bcd60e51b815260040161067f90612a30565b611035611bc8565b600054610100900460ff166110355760405162461bcd60e51b815260040161067f90612a30565b61012d80546001600160a01b038381166001600160a01b0319831681179093556040519116919082907f8be0079c531659141344cd1fd0a4f28419497f9722a3daafe3b4186f6b6457e090600090a35050565b6000611149836001600160a01b038416611bf8565b816001600160a01b0316836001600160a01b0316036118b55760405162461bcd60e51b815260206004820152601960248201527f4552433732313a20617070726f766520746f2063616c6c657200000000000000604482015260640161067f565b6001600160a01b038381166000818152606a6020908152604080832094871680845294825291829020805460ff191686151590811790915591519182527f17307eab39ab6107e8899845ad3d59bd9653f200f220920489ca2b5937696c31910160405180910390a3505050565b61192d84848461146c565b61193984848484611c47565b6110dd5760405162461bcd60e51b815260040161067f90612a7b565b6060611960826111fa565b600082815260976020526040812080546119799061275e565b80601f01602080910402602001604051908101604052809291908181526020018280546119a59061275e565b80156119f25780601f106119c7576101008083540402835291602001916119f2565b820191906000526020600020905b8154815290600101906020018083116119d557829003601f168201915b505050505090506000611a1060408051602081019091526000815290565b90508051600003611a22575092915050565b815115611a54578082604051602001611a3c929190612acd565b60405160208183030381529060405292505050919050565b61146484611d48565b610748828260405180602001604052806000815250611dbb565b60006001600160e01b031982166380ac58cd60e01b1480611aa857506001600160e01b03198216635b5e139f60e01b145b8061054c57506301ffc9a760e01b6001600160e01b031983161461054c565b6001600160a01b0381163b611b345760405162461bcd60e51b815260206004820152602d60248201527f455243313936373a206e657720696d706c656d656e746174696f6e206973206e60448201526c1bdd08184818dbdb9d1c9858dd609a1b606482015260840161067f565b600080516020612b6983398151915280546001600160a01b0319166001600160a01b0392909216919091179055565b611b6c83611dee565b600082511180611b795750805b15610720576110dd8383611e2e565b600054610100900460ff16611baf5760405162461bcd60e51b815260040161067f90612a30565b6065611bbb838261287a565b506066610720828261287a565b600054610100900460ff16611bef5760405162461bcd60e51b815260040161067f90612a30565b611035336117ec565b6000818152600183016020526040812054611c3f5750815460018181018455600084815260208082209093018490558454848252828601909352604090209190915561054c565b50600061054c565b60006001600160a01b0384163b15611d3d57604051630a85bd0160e11b81526001600160a01b0385169063150b7a0290611c8b903390899088908890600401612afc565b6020604051808303816000875af1925050508015611cc6575060408051601f3d908101601f19168201909252611cc391810190612b2f565b60015b611d23573d808015611cf4576040519150601f19603f3d011682016040523d82523d6000602084013e611cf9565b606091505b508051600003611d1b5760405162461bcd60e51b815260040161067f90612a7b565b805181602001fd5b6001600160e01b031916630a85bd0160e11b149050611464565b506001949350505050565b6060611d53826111fa565b6000611d6a60408051602081019091526000815290565b90506000815111611d8a5760405180602001604052806000815250611149565b80611d9484611e53565b604051602001611da5929190612acd565b6040516020818303038152906040529392505050565b611dc58383611ee6565b611dd26000848484611c47565b6107205760405162461bcd60e51b815260040161067f90612a7b565b611df781611ac7565b6040516001600160a01b038216907fbc7cd75a20ee27fd9adebab32041f755214dbc6bffa90cc0225b39da2e5c2d3b90600090a250565b60606111498383604051806060016040528060278152602001612b8960279139612071565b60606000611e60836120e9565b600101905060008167ffffffffffffffff811115611e8057611e80612354565b6040519080825280601f01601f191660200182016040528015611eaa576020820181803683370190505b5090508181016020015b600019016f181899199a1a9b1b9c1cb0b131b232b360811b600a86061a8153600a8504945084611eb457509392505050565b6001600160a01b038216611f3c5760405162461bcd60e51b815260206004820181905260248201527f4552433732313a206d696e7420746f20746865207a65726f2061646472657373604482015260640161067f565b6000818152606760205260409020546001600160a01b031615611fa15760405162461bcd60e51b815260206004820152601c60248201527f4552433732313a20746f6b656e20616c7265616479206d696e74656400000000604482015260640161067f565b6000818152606760205260409020546001600160a01b0316156120065760405162461bcd60e51b815260206004820152601c60248201527f4552433732313a20746f6b656e20616c7265616479206d696e74656400000000604482015260640161067f565b6001600160a01b038216600081815260686020908152604080832080546001019055848352606790915280822080546001600160a01b0319168417905551839291907fddf252ad1be2c89b69c2b068fc378daa952ba7f163c4a11628f55a4df523b3ef908290a45050565b6060600080856001600160a01b03168560405161208e9190612b4c565b600060405180830381855af49150503d80600081146120c9576040519150601f19603f3d011682016040523d82523d6000602084013e6120ce565b606091505b50915091506120df868383876121c1565b9695505050505050565b60008072184f03e93ff9f4daa797ed6e38ed64bf6a1f0160401b83106121285772184f03e93ff9f4daa797ed6e38ed64bf6a1f0160401b830492506040015b6d04ee2d6d415b85acef81000000008310612154576d04ee2d6d415b85acef8100000000830492506020015b662386f26fc10000831061217257662386f26fc10000830492506010015b6305f5e100831061218a576305f5e100830492506008015b612710831061219e57612710830492506004015b606483106121b0576064830492506002015b600a831061054c5760010192915050565b60608315612230578251600003612229576001600160a01b0385163b6122295760405162461bcd60e51b815260206004820152601d60248201527f416464726573733a2063616c6c20746f206e6f6e2d636f6e7472616374000000604482015260640161067f565b5081611464565b61146483838151156122455781518083602001fd5b8060405162461bcd60e51b815260040161067f91906122e2565b6001600160e01b031981168114610c7457600080fd5b60006020828403121561228757600080fd5b81356111498161225f565b60005b838110156122ad578181015183820152602001612295565b50506000910152565b600081518084526122ce816020860160208601612292565b601f01601f19169290920160200192915050565b60208152600061114960208301846122b6565b60006020828403121561230757600080fd5b5035919050565b80356001600160a01b038116811461232557600080fd5b919050565b6000806040838503121561233d57600080fd5b6123468361230e565b946020939093013593505050565b634e487b7160e01b600052604160045260246000fd5b600082601f83011261237b57600080fd5b813567ffffffffffffffff8082111561239657612396612354565b604051601f8301601f19908116603f011681019082821181831017156123be576123be612354565b816040528381528660208588010111156123d757600080fd5b836020870160208301376000602085830101528094505050505092915050565b6000806040838503121561240a57600080fd5b82359150602083013567ffffffffffffffff81111561242857600080fd5b6124348582860161236a565b9150509250929050565b60c08152600061245160c08301896122b6565b828103602084015261246381896122b6565b9050828103604084015261247781886122b6565b9050828103606084015261248b81876122b6565b9050841515608084015282810360a08401526124a781856122b6565b9998505050505050505050565b6000806000606084860312156124c957600080fd5b6124d28461230e565b92506124e06020850161230e565b9150604084013590509250925092565b8035801515811461232557600080fd5b600080600080600080600060e0888a03121561251b57600080fd5b87359650602088013567ffffffffffffffff8082111561253a57600080fd5b6125468b838c0161236a565b975060408a013591508082111561255c57600080fd5b6125688b838c0161236a565b965060608a013591508082111561257e57600080fd5b61258a8b838c0161236a565b955060808a01359150808211156125a057600080fd5b6125ac8b838c0161236a565b94506125ba60a08b016124f0565b935060c08a01359150808211156125d057600080fd5b506125dd8a828b0161236a565b91505092959891949750929550565b6000602082840312156125fe57600080fd5b6111498261230e565b6000806040838503121561261a57600080fd5b823567ffffffffffffffff8082111561263257600080fd5b61263e8683870161236a565b9350602085013591508082111561265457600080fd5b506124348582860161236a565b6000806040838503121561267457600080fd5b61267d8361230e565b9150602083013567ffffffffffffffff81111561242857600080fd5b600080604083850312156126ac57600080fd5b6126b58361230e565b91506126c3602084016124f0565b90509250929050565b600080600080608085870312156126e257600080fd5b6126eb8561230e565b93506126f96020860161230e565b925060408501359150606085013567ffffffffffffffff81111561271c57600080fd5b6127288782880161236a565b91505092959194509250565b6000806040838503121561274757600080fd5b6127508361230e565b91506126c36020840161230e565b600181811c9082168061277257607f821691505b60208210810361279257634e487b7160e01b600052602260045260246000fd5b50919050565b6020808252602d908201527f4552433732313a2063616c6c6572206973206e6f7420746f6b656e206f776e6560408201526c1c881bdc88185c1c1c9bdd9959609a1b606082015260800190565b60208082526027908201527f4d696e7465724d616e616765723a2063616c6c6572206973206e6f74207468656040820152661036b4b73a32b960c91b606082015260800190565b601f82111561072057600081815260208120601f850160051c810160208610156128535750805b601f850160051c820191505b818110156128725782815560010161285f565b505050505050565b815167ffffffffffffffff81111561289457612894612354565b6128a8816128a2845461275e565b8461282c565b602080601f8311600181146128dd57600084156128c55750858301515b600019600386901b1c1916600185901b178555612872565b600085815260208120601f198616915b8281101561290c578886015182559484019460019091019084016128ed565b508582101561292a5787850151600019600388901b60f8161c191681555b5050505050600190811b01905550565b6020808252602c908201527f46756e6374696f6e206d7573742062652063616c6c6564207468726f7567682060408201526b19195b1959d85d1958d85b1b60a21b606082015260800190565b6020808252602c908201527f46756e6374696f6e206d7573742062652063616c6c6564207468726f7567682060408201526b6163746976652070726f787960a01b606082015260800190565b60208082526025908201527f4552433732313a207472616e736665722066726f6d20696e636f72726563742060408201526437bbb732b960d91b606082015260800190565b600060208284031215612a2957600080fd5b5051919050565b6020808252602b908201527f496e697469616c697a61626c653a20636f6e7472616374206973206e6f74206960408201526a6e697469616c697a696e6760a81b606082015260800190565b60208082526032908201527f4552433732313a207472616e7366657220746f206e6f6e20455243373231526560408201527131b2b4bb32b91034b6b83632b6b2b73a32b960711b606082015260800190565b60008351612adf818460208801612292565b835190830190612af3818360208801612292565b01949350505050565b6001600160a01b03858116825284166020820152604081018390526080606082018190526000906120df908301846122b6565b600060208284031215612b4157600080fd5b81516111498161225f565b60008251612b5e818460208701612292565b919091019291505056fe360894a13ba1a3210667c828492db98dca3e2076cc3735a920a3ca505d382bbc416464726573733a206c6f772d6c6576656c2064656c65676174652063616c6c206661696c6564a2646970667358221220567789005005838740829b9b19b3630e2c4c6420fe20a4f759adc0d32f35948364736f6c63430008110033496e697469616c697a61626c653a20636f6e7472616374206973206e6f742069",
  "linkReferences": {},
  "deployedLinkReferences": {}
}