{
  "_format": "hh-sol-artifact-1",
  "contractName": "Nft",
  "sourceName": "src/contracts/Nft.sol",
  "abi": [
    {
      "anonymous": false,
      "inputs": [
        {
          "indexed": false,
          "internalType": "address",
          "name": "previousAdmin",
          "type": "address"
        },
        {
          "indexed": false,
          "internalType": "address",
          "name": "newAdmin",
          "type": "address"
        }
      ],
      "name": "AdminChanged",
      "type": "event"
    },
    {
      "anonymous": false,
      "inputs": [
        {
          "indexed": true,
          "internalType": "address",
          "name": "owner",
          "type": "address"
        },
        {
          "indexed": true,
          "internalType": "address",
          "name": "approved",
          "type": "address"
        },
        {
          "indexed": true,
          "internalType": "uint256",
          "name": "tokenId",
          "type": "uint256"
        }
      ],
      "name": "Approval",
      "type": "event"
    },
    {
      "anonymous": false,
      "inputs": [
        {
          "indexed": true,
          "internalType": "address",
          "name": "owner",
          "type": "address"
        },
        {
          "indexed": true,
          "internalType": "address",
          "name": "operator",
          "type": "address"
        },
        {
          "indexed": false,
          "internalType": "bool",
          "name": "approved",
          "type": "bool"
        }
      ],
      "name": "ApprovalForAll",
      "type": "event"
    },
    {
      "anonymous": false,
      "inputs": [
        {
          "indexed": false,
          "internalType": "uint256",
          "name": "_fromTokenId",
          "type": "uint256"
        },
        {
          "indexed": false,
          "internalType": "uint256",
          "name": "_toTokenId",
          "type": "uint256"
        }
      ],
      "name": "BatchMetadataUpdate",
      "type": "event"
    },
    {
      "anonymous": false,
      "inputs": [
        {
          "indexed": true,
          "internalType": "address",
          "name": "beacon",
          "type": "address"
        }
      ],
      "name": "BeaconUpgraded",
      "type": "event"
    },
    {
      "anonymous": false,
      "inputs": [
        {
          "indexed": false,
          "internalType": "uint8",
          "name": "version",
          "type": "uint8"
        }
      ],
      "name": "Initialized",
      "type": "event"
    },
    {
      "anonymous": false,
      "inputs": [
        {
          "indexed": false,
          "internalType": "uint256",
          "name": "_tokenId",
          "type": "uint256"
        }
      ],
      "name": "MetadataUpdate",
      "type": "event"
    },
    {
      "anonymous": false,
      "inputs": [
        {
          "indexed": true,
          "internalType": "address",
          "name": "previousOwner",
          "type": "address"
        },
        {
          "indexed": true,
          "internalType": "address",
          "name": "newOwner",
          "type": "address"
        }
      ],
      "name": "OwnershipTransferred",
      "type": "event"
    },
    {
      "anonymous": false,
      "inputs": [
        {
          "indexed": true,
          "internalType": "address",
          "name": "from",
          "type": "address"
        },
        {
          "indexed": true,
          "internalType": "address",
          "name": "to",
          "type": "address"
        },
        {
          "indexed": true,
          "internalType": "uint256",
          "name": "tokenId",
          "type": "uint256"
        }
      ],
      "name": "Transfer",
      "type": "event"
    },
    {
      "anonymous": false,
      "inputs": [
        {
          "indexed": true,
          "internalType": "address",
          "name": "implementation",
          "type": "address"
        }
      ],
      "name": "Upgraded",
      "type": "event"
    },
    {
      "anonymous": false,
      "inputs": [
        {
          "indexed": true,
          "internalType": "address",
          "name": "minter",
          "type": "address"
        }
      ],
      "name": "mintersAdded",
      "type": "event"
    },
    {
      "inputs": [
        {
          "internalType": "address",
          "name": "_minter",
          "type": "address"
        }
      ],
      "name": "addMinter",
      "outputs": [],
      "stateMutability": "nonpayable",
      "type": "function"
    },
    {
      "inputs": [
        {
          "internalType": "address",
          "name": "to",
          "type": "address"
        },
        {
          "internalType": "uint256",
          "name": "tokenId",
          "type": "uint256"
        }
      ],
      "name": "approve",
      "outputs": [],
      "stateMutability": "nonpayable",
      "type": "function"
    },
    {
      "inputs": [
        {
          "internalType": "address",
          "name": "owner",
          "type": "address"
        }
      ],
      "name": "balanceOf",
      "outputs": [
        {
          "internalType": "uint256",
          "name": "",
          "type": "uint256"
        }
      ],
      "stateMutability": "view",
      "type": "function"
    },
    {
      "inputs": [
        {
          "internalType": "uint256",
          "name": "tokenId",
          "type": "uint256"
        }
      ],
      "name": "getApproved",
      "outputs": [
        {
          "internalType": "address",
          "name": "",
          "type": "address"
        }
      ],
      "stateMutability": "view",
      "type": "function"
    },
    {
      "inputs": [],
      "name": "getImplementation",
      "outputs": [
        {
          "internalType": "address",
          "name": "",
          "type": "address"
        }
      ],
      "stateMutability": "view",
      "type": "function"
    },
    {
      "inputs": [
        {
          "internalType": "address",
          "name": "_nftContent",
          "type": "address"
        },
        {
          "internalType": "string",
          "name": "_name",
          "type": "string"
        },
        {
          "internalType": "string",
          "name": "_symbol",
          "type": "string"
        },
        {
          "internalType": "address",
          "name": "_owner",
          "type": "address"
        }
      ],
      "name": "initialize",
      "outputs": [],
      "stateMutability": "nonpayable",
      "type": "function"
    },
    {
      "inputs": [
        {
          "internalType": "address",
          "name": "owner",
          "type": "address"
        },
        {
          "internalType": "address",
          "name": "operator",
          "type": "address"
        }
      ],
      "name": "isApprovedForAll",
      "outputs": [
        {
          "internalType": "bool",
          "name": "",
          "type": "bool"
        }
      ],
      "stateMutability": "view",
      "type": "function"
    },
    {
      "inputs": [
        {
          "internalType": "address",
          "name": "_minter",
          "type": "address"
        }
      ],
      "name": "isMinter",
      "outputs": [
        {
          "internalType": "bool",
          "name": "",
          "type": "bool"
        }
      ],
      "stateMutability": "view",
      "type": "function"
    },
    {
      "inputs": [
        {
          "internalType": "bytes[]",
          "name": "data",
          "type": "bytes[]"
        }
      ],
      "name": "multicall",
      "outputs": [
        {
          "internalType": "bytes[]",
          "name": "results",
          "type": "bytes[]"
        }
      ],
      "stateMutability": "nonpayable",
      "type": "function"
    },
    {
      "inputs": [],
      "name": "name",
      "outputs": [
        {
          "internalType": "string",
          "name": "",
          "type": "string"
        }
      ],
      "stateMutability": "view",
      "type": "function"
    },
    {
      "inputs": [],
      "name": "nftContent",
      "outputs": [
        {
          "internalType": "contract INftContent",
          "name": "",
          "type": "address"
        }
      ],
      "stateMutability": "view",
      "type": "function"
    },
    {
      "inputs": [],
      "name": "owner",
      "outputs": [
        {
          "internalType": "address",
          "name": "",
          "type": "address"
        }
      ],
      "stateMutability": "view",
      "type": "function"
    },
    {
      "inputs": [
        {
          "internalType": "uint256",
          "name": "tokenId",
          "type": "uint256"
        }
      ],
      "name": "ownerOf",
      "outputs": [
        {
          "internalType": "address",
          "name": "",
          "type": "address"
        }
      ],
      "stateMutability": "view",
      "type": "function"
    },
    {
      "inputs": [],
      "name": "proxiableUUID",
      "outputs": [
        {
          "internalType": "bytes32",
          "name": "",
          "type": "bytes32"
        }
      ],
      "stateMutability": "view",
      "type": "function"
    },
    {
      "inputs": [
        {
          "internalType": "address",
          "name": "_minter",
          "type": "address"
        }
      ],
      "name": "removeMinter",
      "outputs": [],
      "stateMutability": "nonpayable",
      "type": "function"
    },
    {
      "inputs": [],
      "name": "renounceOwnership",
      "outputs": [],
      "stateMutability": "nonpayable",
      "type": "function"
    },
    {
      "inputs": [
        {
          "internalType": "string",
          "name": "_schoolId",
          "type": "string"
        },
        {
          "internalType": "address",
          "name": "_to",
          "type": "address"
        },
        {
          "internalType": "string[8]",
          "name": "_nftDatavalues",
          "type": "string[8]"
        }
      ],
      "name": "safeMint",
      "outputs": [
        {
          "internalType": "uint256",
          "name": "",
          "type": "uint256"
        }
      ],
      "stateMutability": "nonpayable",
      "type": "function"
    },
    {
      "inputs": [
        {
          "internalType": "address",
          "name": "from",
          "type": "address"
        },
        {
          "internalType": "address",
          "name": "to",
          "type": "address"
        },
        {
          "internalType": "uint256",
          "name": "tokenId",
          "type": "uint256"
        }
      ],
      "name": "safeTransferFrom",
      "outputs": [],
      "stateMutability": "nonpayable",
      "type": "function"
    },
    {
      "inputs": [
        {
          "internalType": "address",
          "name": "from",
          "type": "address"
        },
        {
          "internalType": "address",
          "name": "to",
          "type": "address"
        },
        {
          "internalType": "uint256",
          "name": "tokenId",
          "type": "uint256"
        },
        {
          "internalType": "bytes",
          "name": "data",
          "type": "bytes"
        }
      ],
      "name": "safeTransferFrom",
      "outputs": [],
      "stateMutability": "nonpayable",
      "type": "function"
    },
    {
      "inputs": [
        {
          "internalType": "address",
          "name": "operator",
          "type": "address"
        },
        {
          "internalType": "bool",
          "name": "approved",
          "type": "bool"
        }
      ],
      "name": "setApprovalForAll",
      "outputs": [],
      "stateMutability": "nonpayable",
      "type": "function"
    },
    {
      "inputs": [
        {
          "internalType": "bytes4",
          "name": "interfaceId",
          "type": "bytes4"
        }
      ],
      "name": "supportsInterface",
      "outputs": [
        {
          "internalType": "bool",
          "name": "",
          "type": "bool"
        }
      ],
      "stateMutability": "view",
      "type": "function"
    },
    {
      "inputs": [],
      "name": "symbol",
      "outputs": [
        {
          "internalType": "string",
          "name": "",
          "type": "string"
        }
      ],
      "stateMutability": "view",
      "type": "function"
    },
    {
      "inputs": [
        {
          "internalType": "uint256",
          "name": "_tokenId",
          "type": "uint256"
        }
      ],
      "name": "tokenURI",
      "outputs": [
        {
          "internalType": "string",
          "name": "",
          "type": "string"
        }
      ],
      "stateMutability": "view",
      "type": "function"
    },
    {
      "inputs": [],
      "name": "totalSupply",
      "outputs": [
        {
          "internalType": "uint256",
          "name": "",
          "type": "uint256"
        }
      ],
      "stateMutability": "view",
      "type": "function"
    },
    {
      "inputs": [
        {
          "internalType": "address",
          "name": "from",
          "type": "address"
        },
        {
          "internalType": "address",
          "name": "to",
          "type": "address"
        },
        {
          "internalType": "uint256",
          "name": "tokenId",
          "type": "uint256"
        }
      ],
      "name": "transferFrom",
      "outputs": [],
      "stateMutability": "nonpayable",
      "type": "function"
    },
    {
      "inputs": [
        {
          "internalType": "address",
          "name": "newOwner",
          "type": "address"
        }
      ],
      "name": "transferOwnership",
      "outputs": [],
      "stateMutability": "nonpayable",
      "type": "function"
    },
    {
      "inputs": [
        {
          "internalType": "uint256",
          "name": "_tokenId",
          "type": "uint256"
        },
        {
          "internalType": "string[8]",
          "name": "_nftDatavalues",
          "type": "string[8]"
        }
      ],
      "name": "updateNftContent",
      "outputs": [],
      "stateMutability": "nonpayable",
      "type": "function"
    },
    {
      "inputs": [
        {
          "internalType": "address",
          "name": "newImplementation",
          "type": "address"
        }
      ],
      "name": "upgradeTo",
      "outputs": [],
      "stateMutability": "nonpayable",
      "type": "function"
    },
    {
      "inputs": [
        {
          "internalType": "address",
          "name": "newImplementation",
          "type": "address"
        },
        {
          "internalType": "bytes",
          "name": "data",
          "type": "bytes"
        }
      ],
      "name": "upgradeToAndCall",
      "outputs": [],
      "stateMutability": "payable",
      "type": "function"
    }
  ],
  "bytecode": "0x60a06040523060805234801561001457600080fd5b50608051612a9a61004c6000396000818161095e0152818161099e01528181610ad201528181610b120152610b8a0152612a9a6000f3fe6080604052600436106101c25760003560e01c80636352211e116100f7578063aa271e1a11610095578063c87b56dd11610064578063c87b56dd146104ee578063d40c6dcd1461050e578063e985e9c51461052f578063f2fde38b1461057857600080fd5b8063aa271e1a1461046c578063aaf10f421461048c578063ac9650d8146104a1578063b88d4fde146104ce57600080fd5b80638da5cb5b116100d15780638da5cb5b146103f857806395d89b4114610417578063983b2d561461042c578063a22cb4651461044c57600080fd5b80636352211e146103a357806370a08231146103c3578063715018a6146103e357600080fd5b80633092afd5116101645780634bda62451161013e5780634bda62451461033b5780634f1ef2861461035b57806352d1902d1461036e578063613d25bb1461038357600080fd5b80633092afd5146102db5780633659cfe6146102fb57806342842e0e1461031b57600080fd5b8063081812fc116101a0578063081812fc1461024c578063095ea7b31461028457806318160ddd146102a657806323b872dd146102bb57600080fd5b806301ffc9a7146101c757806306fdde03146101fc578063076e34851461021e575b600080fd5b3480156101d357600080fd5b506101e76101e2366004611f27565b610598565b60405190151581526020015b60405180910390f35b34801561020857600080fd5b506102116105a9565b6040516101f39190611f94565b34801561022a57600080fd5b5061023e610239366004612116565b61063b565b6040519081526020016101f3565b34801561025857600080fd5b5061026c610267366004612189565b61075d565b6040516001600160a01b0390911681526020016101f3565b34801561029057600080fd5b506102a461029f3660046121a2565b610784565b005b3480156102b257600080fd5b5061023e610899565b3480156102c757600080fd5b506102a46102d63660046121cc565b61090b565b3480156102e757600080fd5b506102a46102f6366004612208565b61093c565b34801561030757600080fd5b506102a4610316366004612208565b610954565b34801561032757600080fd5b506102a46103363660046121cc565b610a1c565b34801561034757600080fd5b506102a4610356366004612223565b610a37565b6102a4610369366004612269565b610ac8565b34801561037a57600080fd5b5061023e610b7d565b34801561038f57600080fd5b506102a461039e3660046122ac565b610c30565b3480156103af57600080fd5b5061026c6103be366004612189565b610d84565b3480156103cf57600080fd5b5061023e6103de366004612208565b610de4565b3480156103ef57600080fd5b506102a4610e6a565b34801561040457600080fd5b5061012d546001600160a01b031661026c565b34801561042357600080fd5b50610211610e7e565b34801561043857600080fd5b506102a4610447366004612208565b610e8d565b34801561045857600080fd5b506102a4610467366004612330565b610ed9565b34801561047857600080fd5b506101e7610487366004612208565b610ee4565b34801561049857600080fd5b5061026c610ef2565b3480156104ad57600080fd5b506104c16104bc36600461236c565b610efc565b6040516101f391906123e0565b3480156104da57600080fd5b506102a46104e9366004612435565b610ff0565b3480156104fa57600080fd5b50610211610509366004612189565b611028565b34801561051a57600080fd5b506101615461026c906001600160a01b031681565b34801561053b57600080fd5b506101e761054a36600461249c565b6001600160a01b039182166000908152606a6020908152604080832093909416825291909152205460ff1690565b34801561058457600080fd5b506102a4610593366004612208565b61109b565b60006105a382611111565b92915050565b6060606580546105b8906124cf565b80601f01602080910402602001604051908101604052809291908181526020018280546105e4906124cf565b80156106315780601f1061060657610100808354040283529160200191610631565b820191906000526020600020905b81548152906001019060200180831161061457829003601f168201915b5050505050905090565b600061064961015f33611136565b61066e5760405162461bcd60e51b815260040161066590612509565b60405180910390fd5b6101615460405163342f34a760e21b81526000916001600160a01b03169063d0bcd29c906106a0908890600401611f94565b6020604051808303816000875af11580156106bf573d6000803e3d6000fd5b505050506040513d601f19601f820116820180604052508101906106e39190612550565b90506106ef848261115b565b61016154604051634bda624560e01b81526001600160a01b0390911690634bda6245906107229084908790600401612569565b600060405180830381600087803b15801561073c57600080fd5b505af1158015610750573d6000803e3d6000fd5b5092979650505050505050565b600061076882611175565b506000908152606960205260409020546001600160a01b031690565b600061078f82610d84565b9050806001600160a01b0316836001600160a01b0316036107fc5760405162461bcd60e51b815260206004820152602160248201527f4552433732313a20617070726f76616c20746f2063757272656e74206f776e656044820152603960f91b6064820152608401610665565b336001600160a01b03821614806108185750610818813361054a565b61088a5760405162461bcd60e51b815260206004820152603d60248201527f4552433732313a20617070726f76652063616c6c6572206973206e6f7420746f60448201527f6b656e206f776e6572206f7220617070726f76656420666f7220616c6c0000006064820152608401610665565b61089483836111d4565b505050565b6101615460408051629a9b7b60e01b815290516000926001600160a01b031691629a9b7b9160048083019260209291908290030181865afa1580156108e2573d6000803e3d6000fd5b505050506040513d601f19601f820116820180604052508101906109069190612550565b905090565b6109153382611242565b6109315760405162461bcd60e51b8152600401610665906125b4565b6108948383836112c1565b610944611425565b61095061015f82611480565b5050565b6001600160a01b037f000000000000000000000000000000000000000000000000000000000000000016300361099c5760405162461bcd60e51b815260040161066590612601565b7f00000000000000000000000000000000000000000000000000000000000000006001600160a01b03166109ce611495565b6001600160a01b0316146109f45760405162461bcd60e51b81526004016106659061264d565b6109fd816114b1565b60408051600080825260208201909252610a19918391906114b9565b50565b61089483838360405180602001604052806000815250610ff0565b610a4361015f33611136565b610a5f5760405162461bcd60e51b815260040161066590612509565b61016154604051634bda624560e01b81526001600160a01b0390911690634bda624590610a929085908590600401612569565b600060405180830381600087803b158015610aac57600080fd5b505af1158015610ac0573d6000803e3d6000fd5b505050505050565b6001600160a01b037f0000000000000000000000000000000000000000000000000000000000000000163003610b105760405162461bcd60e51b815260040161066590612601565b7f00000000000000000000000000000000000000000000000000000000000000006001600160a01b0316610b42611495565b6001600160a01b031614610b685760405162461bcd60e51b81526004016106659061264d565b610b71826114b1565b610950828260016114b9565b6000306001600160a01b037f00000000000000000000000000000000000000000000000000000000000000001614610c1d5760405162461bcd60e51b815260206004820152603860248201527f555550535570677261646561626c653a206d757374206e6f742062652063616c60448201527f6c6564207468726f7567682064656c656761746563616c6c00000000000000006064820152608401610665565b50600080516020612a1e83398151915290565b600054610100900460ff1615808015610c505750600054600160ff909116105b80610c6a5750303b158015610c6a575060005460ff166001145b610ccd5760405162461bcd60e51b815260206004820152602e60248201527f496e697469616c697a61626c653a20636f6e747261637420697320616c72656160448201526d191e481a5b9a5d1a585b1a5e995960921b6064820152608401610665565b6000805460ff191660011790558015610cf0576000805461ff0019166101001790555b610cfa8484611624565b610d02611655565b610d0a611684565b610d12611684565b610d1b826116ab565b61016180546001600160a01b0319166001600160a01b0387161790558015610d7d576000805461ff0019169055604051600181527f7f26b83ff96e1f2b6a682f133852f6798a09c465da95921460cefb38474024989060200160405180910390a15b5050505050565b6000818152606760205260408120546001600160a01b0316806105a35760405162461bcd60e51b8152602060048201526018602482015277115490cdcc8c4e881a5b9d985b1a59081d1bdad95b88125160421b6044820152606401610665565b60006001600160a01b038216610e4e5760405162461bcd60e51b815260206004820152602960248201527f4552433732313a2061646472657373207a65726f206973206e6f7420612076616044820152683634b21037bbb732b960b91b6064820152608401610665565b506001600160a01b031660009081526068602052604090205490565b610e72611425565b610e7c60006116ab565b565b6060606680546105b8906124cf565b610e95611425565b610ea161015f826116fe565b506040516001600160a01b038216907fcd5f699da5e499530ccc53d8f59d53d52729a153dd75d34e192a6ab950c1e26a90600090a250565b610950338383611713565b60006105a361015f83611136565b6000610906611495565b6060816001600160401b03811115610f1657610f16611fa7565b604051908082528060200260200182016040528015610f4957816020015b6060815260200190600190039081610f345790505b50905060005b82811015610fe957610fb930858584818110610f6d57610f6d612699565b9050602002810190610f7f91906126af565b8080601f0160208091040260200160405190810160405280939291908181526020018383808284376000920191909152506117e192505050565b828281518110610fcb57610fcb612699565b60200260200101819052508080610fe190612712565b915050610f4f565b5092915050565b610ffa3383611242565b6110165760405162461bcd60e51b8152600401610665906125b4565b61102284848484611806565b50505050565b6101615460405163561031d160e11b8152600481018390526060916001600160a01b03169063ac2063a290602401600060405180830381865afa158015611073573d6000803e3d6000fd5b505050506040513d6000823e601f3d908101601f191682016040526105a3919081019061272b565b6110a3611425565b6001600160a01b0381166111085760405162461bcd60e51b815260206004820152602660248201527f4f776e61626c653a206e6577206f776e657220697320746865207a65726f206160448201526564647265737360d01b6064820152608401610665565b610a19816116ab565b60006001600160e01b03198216632483248360e11b14806105a357506105a382611839565b6001600160a01b038116600090815260018301602052604081205415155b9392505050565b610950828260405180602001604052806000815250611889565b6000818152606760205260409020546001600160a01b0316610a195760405162461bcd60e51b8152602060048201526018602482015277115490cdcc8c4e881a5b9d985b1a59081d1bdad95b88125160421b6044820152606401610665565b600081815260696020526040902080546001600160a01b0319166001600160a01b038416908117909155819061120982610d84565b6001600160a01b03167f8c5be1e5ebec7d5bd14f71427d1e84f3dd0314c0f7b2291e5b200ac8c7c3b92560405160405180910390a45050565b60008061124e83610d84565b9050806001600160a01b0316846001600160a01b0316148061129557506001600160a01b038082166000908152606a602090815260408083209388168352929052205460ff165b806112b95750836001600160a01b03166112ae8461075d565b6001600160a01b0316145b949350505050565b826001600160a01b03166112d482610d84565b6001600160a01b0316146112fa5760405162461bcd60e51b8152600401610665906127a1565b6001600160a01b03821661135c5760405162461bcd60e51b8152602060048201526024808201527f4552433732313a207472616e7366657220746f20746865207a65726f206164646044820152637265737360e01b6064820152608401610665565b826001600160a01b031661136f82610d84565b6001600160a01b0316146113955760405162461bcd60e51b8152600401610665906127a1565b600081815260696020908152604080832080546001600160a01b03199081169091556001600160a01b0387811680865260688552838620805460001901905590871680865283862080546001019055868652606790945282852080549092168417909155905184937fddf252ad1be2c89b69c2b068fc378daa952ba7f163c4a11628f55a4df523b3ef91a4505050565b61012d546001600160a01b03163314610e7c5760405162461bcd60e51b815260206004820181905260248201527f4f776e61626c653a2063616c6c6572206973206e6f7420746865206f776e65726044820152606401610665565b6000611154836001600160a01b0384166118bc565b600080516020612a1e833981519152546001600160a01b031690565b610a19611425565b7f4910fdfa16fed3260ed0e7147f7cc6da11a60208b5b9406d12a635614ffd91435460ff16156114ec57610894836119af565b826001600160a01b03166352d1902d6040518163ffffffff1660e01b8152600401602060405180830381865afa925050508015611546575060408051601f3d908101601f1916820190925261154391810190612550565b60015b6115a95760405162461bcd60e51b815260206004820152602e60248201527f45524331393637557067726164653a206e657720696d706c656d656e7461746960448201526d6f6e206973206e6f74205555505360901b6064820152608401610665565b600080516020612a1e83398151915281146116185760405162461bcd60e51b815260206004820152602960248201527f45524331393637557067726164653a20756e737570706f727465642070726f786044820152681a58589b195555525160ba1b6064820152608401610665565b50610894838383611a4b565b600054610100900460ff1661164b5760405162461bcd60e51b8152600401610665906127e6565b6109508282611a70565b600054610100900460ff1661167c5760405162461bcd60e51b8152600401610665906127e6565b610e7c611ab0565b600054610100900460ff16610e7c5760405162461bcd60e51b8152600401610665906127e6565b61012d80546001600160a01b038381166001600160a01b0319831681179093556040519116919082907f8be0079c531659141344cd1fd0a4f28419497f9722a3daafe3b4186f6b6457e090600090a35050565b6000611154836001600160a01b038416611ae0565b816001600160a01b0316836001600160a01b0316036117745760405162461bcd60e51b815260206004820152601960248201527f4552433732313a20617070726f766520746f2063616c6c6572000000000000006044820152606401610665565b6001600160a01b038381166000818152606a6020908152604080832094871680845294825291829020805460ff191686151590811790915591519182527f17307eab39ab6107e8899845ad3d59bd9653f200f220920489ca2b5937696c31910160405180910390a3505050565b60606111548383604051806060016040528060278152602001612a3e60279139611b2f565b6118118484846112c1565b61181d84848484611ba7565b6110225760405162461bcd60e51b815260040161066590612831565b60006001600160e01b031982166380ac58cd60e01b148061186a57506001600160e01b03198216635b5e139f60e01b145b806105a357506301ffc9a760e01b6001600160e01b03198316146105a3565b6118938383611ca8565b6118a06000848484611ba7565b6108945760405162461bcd60e51b815260040161066590612831565b600081815260018301602052604081205480156119a55760006118e0600183612883565b85549091506000906118f490600190612883565b905081811461195957600086600001828154811061191457611914612699565b906000526020600020015490508087600001848154811061193757611937612699565b6000918252602080832090910192909255918252600188019052604090208390555b855486908061196a5761196a612896565b6001900381819060005260206000200160009055905585600101600086815260200190815260200160002060009055600193505050506105a3565b60009150506105a3565b6001600160a01b0381163b611a1c5760405162461bcd60e51b815260206004820152602d60248201527f455243313936373a206e657720696d706c656d656e746174696f6e206973206e60448201526c1bdd08184818dbdb9d1c9858dd609a1b6064820152608401610665565b600080516020612a1e83398151915280546001600160a01b0319166001600160a01b0392909216919091179055565b611a5483611e33565b600082511180611a615750805b156108945761102283836117e1565b600054610100900460ff16611a975760405162461bcd60e51b8152600401610665906127e6565b6065611aa383826128f2565b50606661089482826128f2565b600054610100900460ff16611ad75760405162461bcd60e51b8152600401610665906127e6565b610e7c336116ab565b6000818152600183016020526040812054611b27575081546001818101845560008481526020808220909301849055845484825282860190935260409020919091556105a3565b5060006105a3565b6060600080856001600160a01b031685604051611b4c91906129b1565b600060405180830381855af49150503d8060008114611b87576040519150601f19603f3d011682016040523d82523d6000602084013e611b8c565b606091505b5091509150611b9d86838387611e73565b9695505050505050565b60006001600160a01b0384163b15611c9d57604051630a85bd0160e11b81526001600160a01b0385169063150b7a0290611beb9033908990889088906004016129cd565b6020604051808303816000875af1925050508015611c26575060408051601f3d908101601f19168201909252611c2391810190612a00565b60015b611c83573d808015611c54576040519150601f19603f3d011682016040523d82523d6000602084013e611c59565b606091505b508051600003611c7b5760405162461bcd60e51b815260040161066590612831565b805181602001fd5b6001600160e01b031916630a85bd0160e11b1490506112b9565b506001949350505050565b6001600160a01b038216611cfe5760405162461bcd60e51b815260206004820181905260248201527f4552433732313a206d696e7420746f20746865207a65726f20616464726573736044820152606401610665565b6000818152606760205260409020546001600160a01b031615611d635760405162461bcd60e51b815260206004820152601c60248201527f4552433732313a20746f6b656e20616c7265616479206d696e746564000000006044820152606401610665565b6000818152606760205260409020546001600160a01b031615611dc85760405162461bcd60e51b815260206004820152601c60248201527f4552433732313a20746f6b656e20616c7265616479206d696e746564000000006044820152606401610665565b6001600160a01b038216600081815260686020908152604080832080546001019055848352606790915280822080546001600160a01b0319168417905551839291907fddf252ad1be2c89b69c2b068fc378daa952ba7f163c4a11628f55a4df523b3ef908290a45050565b611e3c816119af565b6040516001600160a01b038216907fbc7cd75a20ee27fd9adebab32041f755214dbc6bffa90cc0225b39da2e5c2d3b90600090a250565b60608315611ee2578251600003611edb576001600160a01b0385163b611edb5760405162461bcd60e51b815260206004820152601d60248201527f416464726573733a2063616c6c20746f206e6f6e2d636f6e74726163740000006044820152606401610665565b50816112b9565b6112b98383815115611ef75781518083602001fd5b8060405162461bcd60e51b81526004016106659190611f94565b6001600160e01b031981168114610a1957600080fd5b600060208284031215611f3957600080fd5b813561115481611f11565b60005b83811015611f5f578181015183820152602001611f47565b50506000910152565b60008151808452611f80816020860160208601611f44565b601f01601f19169290920160200192915050565b6020815260006111546020830184611f68565b634e487b7160e01b600052604160045260246000fd5b604051601f8201601f191681016001600160401b0381118282101715611fe557611fe5611fa7565b604052919050565b60006001600160401b0382111561200657612006611fa7565b50601f01601f191660200190565b600082601f83011261202557600080fd5b813561203861203382611fed565b611fbd565b81815284602083860101111561204d57600080fd5b816020850160208301376000918101602001919091529392505050565b80356001600160a01b038116811461208157600080fd5b919050565b600082601f83011261209757600080fd5b6040516101008082016001600160401b0383821081831117156120bc576120bc611fa7565b816040528391508286019250868311156120d557600080fd5b855b8381101561210a578035828111156120ef5760008081fd5b6120fb89828a01612014565b845250602092830192016120d7565b50929695505050505050565b60008060006060848603121561212b57600080fd5b83356001600160401b038082111561214257600080fd5b61214e87838801612014565b945061215c6020870161206a565b9350604086013591508082111561217257600080fd5b5061217f86828701612086565b9150509250925092565b60006020828403121561219b57600080fd5b5035919050565b600080604083850312156121b557600080fd5b6121be8361206a565b946020939093013593505050565b6000806000606084860312156121e157600080fd5b6121ea8461206a565b92506121f86020850161206a565b9150604084013590509250925092565b60006020828403121561221a57600080fd5b6111548261206a565b6000806040838503121561223657600080fd5b8235915060208301356001600160401b0381111561225357600080fd5b61225f85828601612086565b9150509250929050565b6000806040838503121561227c57600080fd5b6122858361206a565b915060208301356001600160401b038111156122a057600080fd5b61225f85828601612014565b600080600080608085870312156122c257600080fd5b6122cb8561206a565b935060208501356001600160401b03808211156122e757600080fd5b6122f388838901612014565b9450604087013591508082111561230957600080fd5b5061231687828801612014565b9250506123256060860161206a565b905092959194509250565b6000806040838503121561234357600080fd5b61234c8361206a565b91506020830135801515811461236157600080fd5b809150509250929050565b6000806020838503121561237f57600080fd5b82356001600160401b038082111561239657600080fd5b818501915085601f8301126123aa57600080fd5b8135818111156123b957600080fd5b8660208260051b85010111156123ce57600080fd5b60209290920196919550909350505050565b6000602080830181845280855180835260408601915060408160051b870101925083870160005b8281101561075057603f19888603018452612423858351611f68565b94509285019290850190600101612407565b6000806000806080858703121561244b57600080fd5b6124548561206a565b93506124626020860161206a565b92506040850135915060608501356001600160401b0381111561248457600080fd5b61249087828801612014565b91505092959194509250565b600080604083850312156124af57600080fd5b6124b88361206a565b91506124c66020840161206a565b90509250929050565b600181811c908216806124e357607f821691505b60208210810361250357634e487b7160e01b600052602260045260246000fd5b50919050565b60208082526027908201527f4d696e7465724d616e616765723a2063616c6c6572206973206e6f74207468656040820152661036b4b73a32b960c91b606082015260800190565b60006020828403121561256257600080fd5b5051919050565b8281526040602080830182905260009161014084019190840185845b600881101561075057603f198786030183526125a2858351611f68565b94509183019190830190600101612585565b6020808252602d908201527f4552433732313a2063616c6c6572206973206e6f7420746f6b656e206f776e6560408201526c1c881bdc88185c1c1c9bdd9959609a1b606082015260800190565b6020808252602c908201527f46756e6374696f6e206d7573742062652063616c6c6564207468726f7567682060408201526b19195b1959d85d1958d85b1b60a21b606082015260800190565b6020808252602c908201527f46756e6374696f6e206d7573742062652063616c6c6564207468726f7567682060408201526b6163746976652070726f787960a01b606082015260800190565b634e487b7160e01b600052603260045260246000fd5b6000808335601e198436030181126126c657600080fd5b8301803591506001600160401b038211156126e057600080fd5b6020019150368190038213156126f557600080fd5b9250929050565b634e487b7160e01b600052601160045260246000fd5b600060018201612724576127246126fc565b5060010190565b60006020828403121561273d57600080fd5b81516001600160401b0381111561275357600080fd5b8201601f8101841361276457600080fd5b805161277261203382611fed565b81815285602083850101111561278757600080fd5b612798826020830160208601611f44565b95945050505050565b60208082526025908201527f4552433732313a207472616e736665722066726f6d20696e636f72726563742060408201526437bbb732b960d91b606082015260800190565b6020808252602b908201527f496e697469616c697a61626c653a20636f6e7472616374206973206e6f74206960408201526a6e697469616c697a696e6760a81b606082015260800190565b60208082526032908201527f4552433732313a207472616e7366657220746f206e6f6e20455243373231526560408201527131b2b4bb32b91034b6b83632b6b2b73a32b960711b606082015260800190565b818103818111156105a3576105a36126fc565b634e487b7160e01b600052603160045260246000fd5b601f82111561089457600081815260208120601f850160051c810160208610156128d35750805b601f850160051c820191505b81811015610ac0578281556001016128df565b81516001600160401b0381111561290b5761290b611fa7565b61291f8161291984546124cf565b846128ac565b602080601f831160018114612954576000841561293c5750858301515b600019600386901b1c1916600185901b178555610ac0565b600085815260208120601f198616915b8281101561298357888601518255948401946001909101908401612964565b50858210156129a15787850151600019600388901b60f8161c191681555b5050505050600190811b01905550565b600082516129c3818460208701611f44565b9190910192915050565b6001600160a01b0385811682528416602082015260408101839052608060608201819052600090611b9d90830184611f68565b600060208284031215612a1257600080fd5b815161115481611f1156fe360894a13ba1a3210667c828492db98dca3e2076cc3735a920a3ca505d382bbc416464726573733a206c6f772d6c6576656c2064656c65676174652063616c6c206661696c6564a264697066735822122073e5ba0c1171a12b4940145521c7fd21f1c1f1601466692441328f38fc7658ef64736f6c63430008110033",
  "linkReferences": {},
  "deployedLinkReferences": {}
}