{
  "_format": "hh-sol-artifact-1",
  "contractName": "GigaMinter",
  "sourceName": "src/contracts/GigaMinter.sol",
  "abi": [
    {
      "inputs": [
        {
          "internalType": "address",
          "name": "_gigaAdmin",
          "type": "address"
        },
        {
          "internalType": "address",
          "name": "_schoolNft",
          "type": "address"
        },
        {
          "internalType": "address",
          "name": "_collectorNft",
          "type": "address"
        },
        {
          "internalType": "address",
          "name": "_escrow",
          "type": "address"
        }
      ],
      "stateMutability": "nonpayable",
      "type": "constructor"
    },
    {
      "anonymous": false,
      "inputs": [
        {
          "indexed": true,
          "internalType": "address",
          "name": "_to",
          "type": "address"
        },
        {
          "indexed": true,
          "internalType": "uint256",
          "name": "_tokenId",
          "type": "uint256"
        }
      ],
      "name": "NFTMinted",
      "type": "event"
    },
    {
      "anonymous": false,
      "inputs": [
        {
          "indexed": true,
          "internalType": "address",
          "name": "previousOwner",
          "type": "address"
        },
        {
          "indexed": true,
          "internalType": "address",
          "name": "newOwner",
          "type": "address"
        }
      ],
      "name": "OwnershipTransferred",
      "type": "event"
    },
    {
      "inputs": [],
      "name": "collectorNft",
      "outputs": [
        {
          "internalType": "contract INft",
          "name": "",
          "type": "address"
        }
      ],
      "stateMutability": "view",
      "type": "function"
    },
    {
      "inputs": [],
      "name": "escrowContract",
      "outputs": [
        {
          "internalType": "address payable",
          "name": "",
          "type": "address"
        }
      ],
      "stateMutability": "view",
      "type": "function"
    },
    {
      "inputs": [
        {
          "internalType": "address",
          "name": "_schoolNftTo",
          "type": "address"
        },
        {
          "internalType": "address",
          "name": "_collectorNftTo",
          "type": "address"
        },
        {
          "internalType": "string[]",
          "name": "_values",
          "type": "string[]"
        }
      ],
      "name": "mintNft",
      "outputs": [],
      "stateMutability": "nonpayable",
      "type": "function"
    },
    {
      "inputs": [
        {
          "internalType": "bytes[]",
          "name": "data",
          "type": "bytes[]"
        }
      ],
      "name": "multicall",
      "outputs": [
        {
          "internalType": "bytes[]",
          "name": "results",
          "type": "bytes[]"
        }
      ],
      "stateMutability": "nonpayable",
      "type": "function"
    },
    {
      "inputs": [],
      "name": "owner",
      "outputs": [
        {
          "internalType": "address",
          "name": "",
          "type": "address"
        }
      ],
      "stateMutability": "view",
      "type": "function"
    },
    {
      "inputs": [],
      "name": "renounceOwnership",
      "outputs": [],
      "stateMutability": "nonpayable",
      "type": "function"
    },
    {
      "inputs": [],
      "name": "schoolNft",
      "outputs": [
        {
          "internalType": "contract INft",
          "name": "",
          "type": "address"
        }
      ],
      "stateMutability": "view",
      "type": "function"
    },
    {
      "inputs": [
        {
          "internalType": "address",
          "name": "newOwner",
          "type": "address"
        }
      ],
      "name": "transferOwnership",
      "outputs": [],
      "stateMutability": "nonpayable",
      "type": "function"
    }
  ],
  "bytecode": "0x608060405234801561001057600080fd5b50604051610bcc380380610bcc83398101604081905261002f916100f3565b61003833610087565b600180546001600160a01b038086166001600160a01b03199283161790925560028054858416908316179055600380549284169290911691909117905561007e84610087565b50505050610147565b600080546001600160a01b038381166001600160a01b0319831681178455604051919092169283917f8be0079c531659141344cd1fd0a4f28419497f9722a3daafe3b4186f6b6457e09190a35050565b80516001600160a01b03811681146100ee57600080fd5b919050565b6000806000806080858703121561010957600080fd5b610112856100d7565b9350610120602086016100d7565b925061012e604086016100d7565b915061013c606086016100d7565b905092959194509250565b610a76806101566000396000f3fe608060405234801561001057600080fd5b50600436106100885760003560e01c8063ac9650d81161005b578063ac9650d8146100eb578063e42a96e71461010b578063e873d4981461011e578063f2fde38b1461013157600080fd5b8063310776561461008d578063715018a6146100bd5780638da5cb5b146100c757806391203cf5146100d8575b600080fd5b6001546100a0906001600160a01b031681565b6040516001600160a01b0390911681526020015b60405180910390f35b6100c5610144565b005b6000546001600160a01b03166100a0565b6002546100a0906001600160a01b031681565b6100fe6100f93660046105f5565b610158565b6040516100b491906106ba565b6003546100a0906001600160a01b031681565b6100c561012c36600461077f565b61024d565b6100c561013f3660046108b9565b61037e565b61014c6103fc565b6101566000610456565b565b60608167ffffffffffffffff81111561017357610173610738565b6040519080825280602002602001820160405280156101a657816020015b60608152602001906001900390816101915790505b50905060005b8281101561024657610216308585848181106101ca576101ca6108d4565b90506020028101906101dc91906108ea565b8080601f0160208091040260200160405190810160405280939291908181526020018383808284376000920191909152506104a692505050565b828281518110610228576102286108d4565b6020026020010181905250808061023e90610938565b9150506101ac565b5092915050565b6102556103fc565b600154604051630df31c7b60e31b81526000916001600160a01b031690636f98e3d890610288908690869060040161095f565b6020604051808303816000875af11580156102a7573d6000803e3d6000fd5b505050506040513d601f19601f820116820180604052508101906102cb91906109d1565b600254604051630df31c7b60e31b81529192506001600160a01b031690636f98e3d8906102fe908690869060040161095f565b6020604051808303816000875af115801561031d573d6000803e3d6000fd5b505050506040513d601f19601f8201168201806040525081019061034191906109d1565b5060405181906001600160a01b038616907f4cc0a9c4a99ddc700de1af2c9f916a7cbfdb71f14801ccff94061ad1ef8a804090600090a350505050565b6103866103fc565b6001600160a01b0381166103f05760405162461bcd60e51b815260206004820152602660248201527f4f776e61626c653a206e6577206f776e657220697320746865207a65726f206160448201526564647265737360d01b60648201526084015b60405180910390fd5b6103f981610456565b50565b6000546001600160a01b031633146101565760405162461bcd60e51b815260206004820181905260248201527f4f776e61626c653a2063616c6c6572206973206e6f7420746865206f776e657260448201526064016103e7565b600080546001600160a01b038381166001600160a01b0319831681178455604051919092169283917f8be0079c531659141344cd1fd0a4f28419497f9722a3daafe3b4186f6b6457e09190a35050565b60606104cb8383604051806060016040528060278152602001610a1a602791396104d2565b9392505050565b6060600080856001600160a01b0316856040516104ef91906109ea565b600060405180830381855af49150503d806000811461052a576040519150601f19603f3d011682016040523d82523d6000602084013e61052f565b606091505b50915091506105408683838761054a565b9695505050505050565b606083156105b95782516000036105b2576001600160a01b0385163b6105b25760405162461bcd60e51b815260206004820152601d60248201527f416464726573733a2063616c6c20746f206e6f6e2d636f6e747261637400000060448201526064016103e7565b50816105c3565b6105c383836105cb565b949350505050565b8151156105db5781518083602001fd5b8060405162461bcd60e51b81526004016103e79190610a06565b6000806020838503121561060857600080fd5b823567ffffffffffffffff8082111561062057600080fd5b818501915085601f83011261063457600080fd5b81358181111561064357600080fd5b8660208260051b850101111561065857600080fd5b60209290920196919550909350505050565b60005b8381101561068557818101518382015260200161066d565b50506000910152565b600081518084526106a681602086016020860161066a565b601f01601f19169290920160200192915050565b6000602080830181845280855180835260408601915060408160051b870101925083870160005b8281101561070f57603f198886030184526106fd85835161068e565b945092850192908501906001016106e1565b5092979650505050505050565b80356001600160a01b038116811461073357600080fd5b919050565b634e487b7160e01b600052604160045260246000fd5b604051601f8201601f1916810167ffffffffffffffff8111828210171561077757610777610738565b604052919050565b60008060006060848603121561079457600080fd5b61079d8461071c565b925060206107ac81860161071c565b925060408086013567ffffffffffffffff808211156107ca57600080fd5b818801915088601f8301126107de57600080fd5b8135818111156107f0576107f0610738565b8060051b6107ff86820161074e565b918252838101860191868101908c84111561081957600080fd5b87860192505b838310156108a7578235858111156108375760008081fd5b8601603f81018e136108495760008081fd5b888101358681111561085d5761085d610738565b61086f601f8201601f19168b0161074e565b8181528f8a8385010111156108845760008081fd5b818a84018c83013760009181018b0191909152835250918701919087019061081f565b80985050505050505050509250925092565b6000602082840312156108cb57600080fd5b6104cb8261071c565b634e487b7160e01b600052603260045260246000fd5b6000808335601e1984360301811261090157600080fd5b83018035915067ffffffffffffffff82111561091c57600080fd5b60200191503681900382131561093157600080fd5b9250929050565b60006001820161095857634e487b7160e01b600052601160045260246000fd5b5060010190565b60006040820160018060a01b0385168352602060408185015281855180845260608601915060608160051b870101935082870160005b828110156109c357605f198887030184526109b186835161068e565b95509284019290840190600101610995565b509398975050505050505050565b6000602082840312156109e357600080fd5b5051919050565b600082516109fc81846020870161066a565b9190910192915050565b6020815260006104cb602083018461068e56fe416464726573733a206c6f772d6c6576656c2064656c65676174652063616c6c206661696c6564a26469706673582212208fc50004d7d24df97e28fac54d77e4cf3dbeb56dc4ecf83e84e1ae1292cfd5e364736f6c63430008110033",
  "linkReferences": {},
  "deployedLinkReferences": {}
}