{
  "_format": "hh-sol-artifact-1",
  "contractName": "GigaMinter",
  "sourceName": "src/contracts/GigaMinter.sol",
  "abi": [
    {
      "inputs": [
        {
          "internalType": "address",
          "name": "_gigaAdmin",
          "type": "address"
        },
        {
          "internalType": "address",
          "name": "_schoolNft",
          "type": "address"
        },
        {
          "internalType": "address",
          "name": "_collectorNft",
          "type": "address"
        },
        {
          "internalType": "address",
          "name": "_escrow",
          "type": "address"
        }
      ],
      "stateMutability": "nonpayable",
      "type": "constructor"
    },
    {
      "anonymous": false,
      "inputs": [
        {
          "indexed": true,
          "internalType": "address",
          "name": "_to",
          "type": "address"
        },
        {
          "indexed": true,
          "internalType": "uint256",
          "name": "_tokenId",
          "type": "uint256"
        }
      ],
      "name": "NFTMinted",
      "type": "event"
    },
    {
      "anonymous": false,
      "inputs": [
        {
          "indexed": true,
          "internalType": "address",
          "name": "previousOwner",
          "type": "address"
        },
        {
          "indexed": true,
          "internalType": "address",
          "name": "newOwner",
          "type": "address"
        }
      ],
      "name": "OwnershipTransferred",
      "type": "event"
    },
    {
      "inputs": [],
      "name": "collectorNft",
      "outputs": [
        {
          "internalType": "contract INft",
          "name": "",
          "type": "address"
        }
      ],
      "stateMutability": "view",
      "type": "function"
    },
    {
      "inputs": [],
      "name": "escrowContract",
      "outputs": [
        {
          "internalType": "address payable",
          "name": "",
          "type": "address"
        }
      ],
      "stateMutability": "view",
      "type": "function"
    },
    {
      "inputs": [
        {
          "internalType": "address",
          "name": "_schoolNftTo",
          "type": "address"
        },
        {
          "internalType": "address",
          "name": "_collectorNftTo",
          "type": "address"
        },
        {
          "internalType": "string[]",
          "name": "_values",
          "type": "string[]"
        }
      ],
      "name": "mintNft",
      "outputs": [],
      "stateMutability": "payable",
      "type": "function"
    },
    {
      "inputs": [],
      "name": "owner",
      "outputs": [
        {
          "internalType": "address",
          "name": "",
          "type": "address"
        }
      ],
      "stateMutability": "view",
      "type": "function"
    },
    {
      "inputs": [],
      "name": "renounceOwnership",
      "outputs": [],
      "stateMutability": "nonpayable",
      "type": "function"
    },
    {
      "inputs": [],
      "name": "schoolNft",
      "outputs": [
        {
          "internalType": "contract INft",
          "name": "",
          "type": "address"
        }
      ],
      "stateMutability": "view",
      "type": "function"
    },
    {
      "inputs": [
        {
          "internalType": "address",
          "name": "newOwner",
          "type": "address"
        }
      ],
      "name": "transferOwnership",
      "outputs": [],
      "stateMutability": "nonpayable",
      "type": "function"
    }
  ],
  "bytecode": "0x608060405234801561001057600080fd5b506040516107cc3803806107cc83398101604081905261002f916100f3565b61003833610087565b600180546001600160a01b038086166001600160a01b03199283161790925560028054858416908316179055600380549284169290911691909117905561007e84610087565b50505050610147565b600080546001600160a01b038381166001600160a01b0319831681178455604051919092169283917f8be0079c531659141344cd1fd0a4f28419497f9722a3daafe3b4186f6b6457e09190a35050565b80516001600160a01b03811681146100ee57600080fd5b919050565b6000806000806080858703121561010957600080fd5b610112856100d7565b9350610120602086016100d7565b925061012e604086016100d7565b915061013c606086016100d7565b905092959194509250565b610676806101566000396000f3fe6080604052600436106100705760003560e01c806391203cf51161004e57806391203cf5146100e6578063e42a96e714610106578063e873d49814610126578063f2fde38b1461013957600080fd5b80633107765614610075578063715018a6146100b15780638da5cb5b146100c8575b600080fd5b34801561008157600080fd5b50600154610095906001600160a01b031681565b6040516001600160a01b03909116815260200160405180910390f35b3480156100bd57600080fd5b506100c6610159565b005b3480156100d457600080fd5b506000546001600160a01b0316610095565b3480156100f257600080fd5b50600254610095906001600160a01b031681565b34801561011257600080fd5b50600354610095906001600160a01b031681565b6100c6610134366004610429565b61016d565b34801561014557600080fd5b506100c6610154366004610563565b61029e565b61016161031c565b61016b6000610376565b565b61017561031c565b600154604051630df31c7b60e31b81526000916001600160a01b031690636f98e3d8906101a89086908690600401610585565b6020604051808303816000875af11580156101c7573d6000803e3d6000fd5b505050506040513d601f19601f820116820180604052508101906101eb9190610627565b600254604051630df31c7b60e31b81529192506001600160a01b031690636f98e3d89061021e9086908690600401610585565b6020604051808303816000875af115801561023d573d6000803e3d6000fd5b505050506040513d601f19601f820116820180604052508101906102619190610627565b5060405181906001600160a01b038616907f4cc0a9c4a99ddc700de1af2c9f916a7cbfdb71f14801ccff94061ad1ef8a804090600090a350505050565b6102a661031c565b6001600160a01b0381166103105760405162461bcd60e51b815260206004820152602660248201527f4f776e61626c653a206e6577206f776e657220697320746865207a65726f206160448201526564647265737360d01b60648201526084015b60405180910390fd5b61031981610376565b50565b6000546001600160a01b0316331461016b5760405162461bcd60e51b815260206004820181905260248201527f4f776e61626c653a2063616c6c6572206973206e6f7420746865206f776e65726044820152606401610307565b600080546001600160a01b038381166001600160a01b0319831681178455604051919092169283917f8be0079c531659141344cd1fd0a4f28419497f9722a3daafe3b4186f6b6457e09190a35050565b80356001600160a01b03811681146103dd57600080fd5b919050565b634e487b7160e01b600052604160045260246000fd5b604051601f8201601f1916810167ffffffffffffffff81118282101715610421576104216103e2565b604052919050565b60008060006060848603121561043e57600080fd5b610447846103c6565b925060206104568186016103c6565b925060408086013567ffffffffffffffff8082111561047457600080fd5b818801915088601f83011261048857600080fd5b81358181111561049a5761049a6103e2565b8060051b6104a98682016103f8565b918252838101860191868101908c8411156104c357600080fd5b87860192505b83831015610551578235858111156104e15760008081fd5b8601603f81018e136104f35760008081fd5b8881013586811115610507576105076103e2565b610519601f8201601f19168b016103f8565b8181528f8a83850101111561052e5760008081fd5b818a84018c83013760009181018b019190915283525091870191908701906104c9565b80985050505050505050509250925092565b60006020828403121561057557600080fd5b61057e826103c6565b9392505050565b60006040820160018060a01b0385168352602060408185015281855180845260608601915060608160051b87010193508287016000805b8381101561061857888703605f1901855282518051808952835b818110156105f1578281018901518a82018a015288016105d6565b508881018801849052601f01601f19169097018601965093850193918501916001016105bc565b50949998505050505050505050565b60006020828403121561063957600080fd5b505191905056fea2646970667358221220ec9bd09b1dee083c4bf242c60dbdf2c50bdbf2809646135836eae8c017d2046b64736f6c63430008110033",
  "linkReferences": {},
  "deployedLinkReferences": {}
}