{
  "_format": "hh-sol-artifact-1",
  "contractName": "NftContent",
  "sourceName": "src/contracts/NftContent.sol",
  "abi": [
    {
      "inputs": [
        {
          "internalType": "address",
          "name": "_gigaAdmin",
          "type": "address"
        },
        {
          "internalType": "string",
          "name": "_baseArtScript",
          "type": "string"
        }
      ],
      "stateMutability": "nonpayable",
      "type": "constructor"
    },
    {
      "anonymous": false,
      "inputs": [
        {
          "indexed": true,
          "internalType": "address",
          "name": "previousOwner",
          "type": "address"
        },
        {
          "indexed": true,
          "internalType": "address",
          "name": "newOwner",
          "type": "address"
        }
      ],
      "name": "OwnershipTransferred",
      "type": "event"
    },
    {
      "anonymous": false,
      "inputs": [
        {
          "indexed": false,
          "internalType": "string",
          "name": "baseArtScript",
          "type": "string"
        }
      ],
      "name": "UpdatedBaseArtScript",
      "type": "event"
    },
    {
      "anonymous": false,
      "inputs": [
        {
          "indexed": true,
          "internalType": "uint256",
          "name": "tokenId",
          "type": "uint256"
        },
        {
          "indexed": false,
          "internalType": "string[8]",
          "name": "values",
          "type": "string[8]"
        }
      ],
      "name": "UpdatedNftContent",
      "type": "event"
    },
    {
      "anonymous": false,
      "inputs": [
        {
          "indexed": true,
          "internalType": "uint256",
          "name": "tokenId",
          "type": "uint256"
        },
        {
          "indexed": false,
          "internalType": "string",
          "name": "imageHash",
          "type": "string"
        }
      ],
      "name": "UpdatedNftImage",
      "type": "event"
    },
    {
      "inputs": [],
      "name": "baseArtScript",
      "outputs": [
        {
          "internalType": "string",
          "name": "",
          "type": "string"
        }
      ],
      "stateMutability": "view",
      "type": "function"
    },
    {
      "inputs": [],
      "name": "currentTokenId",
      "outputs": [
        {
          "internalType": "uint256",
          "name": "",
          "type": "uint256"
        }
      ],
      "stateMutability": "view",
      "type": "function"
    },
    {
      "inputs": [
        {
          "internalType": "uint256",
          "name": "_tokenId",
          "type": "uint256"
        }
      ],
      "name": "generateNftArtHash",
      "outputs": [
        {
          "internalType": "bytes32",
          "name": "",
          "type": "bytes32"
        }
      ],
      "stateMutability": "view",
      "type": "function"
    },
    {
      "inputs": [
        {
          "internalType": "uint256",
          "name": "_tokenId",
          "type": "uint256"
        }
      ],
      "name": "generateTokenData",
      "outputs": [
        {
          "internalType": "string",
          "name": "",
          "type": "string"
        }
      ],
      "stateMutability": "view",
      "type": "function"
    },
    {
      "inputs": [
        {
          "internalType": "string",
          "name": "_schoolId",
          "type": "string"
        }
      ],
      "name": "generateTokenId",
      "outputs": [
        {
          "internalType": "uint256",
          "name": "",
          "type": "uint256"
        }
      ],
      "stateMutability": "nonpayable",
      "type": "function"
    },
    {
      "inputs": [
        {
          "internalType": "uint256",
          "name": "_tokenId",
          "type": "uint256"
        }
      ],
      "name": "getArtScript",
      "outputs": [
        {
          "internalType": "string",
          "name": "",
          "type": "string"
        }
      ],
      "stateMutability": "view",
      "type": "function"
    },
    {
      "inputs": [
        {
          "internalType": "uint256",
          "name": "_tokenId",
          "type": "uint256"
        }
      ],
      "name": "getMetadataContent",
      "outputs": [
        {
          "internalType": "string",
          "name": "_content",
          "type": "string"
        }
      ],
      "stateMutability": "view",
      "type": "function"
    },
    {
      "inputs": [
        {
          "internalType": "address",
          "name": "",
          "type": "address"
        }
      ],
      "name": "isContentManager",
      "outputs": [
        {
          "internalType": "bool",
          "name": "",
          "type": "bool"
        }
      ],
      "stateMutability": "view",
      "type": "function"
    },
    {
      "inputs": [
        {
          "internalType": "uint256",
          "name": "",
          "type": "uint256"
        }
      ],
      "name": "keys",
      "outputs": [
        {
          "internalType": "string",
          "name": "",
          "type": "string"
        }
      ],
      "stateMutability": "view",
      "type": "function"
    },
    {
      "inputs": [
        {
          "internalType": "bytes[]",
          "name": "data",
          "type": "bytes[]"
        }
      ],
      "name": "multicall",
      "outputs": [
        {
          "internalType": "bytes[]",
          "name": "results",
          "type": "bytes[]"
        }
      ],
      "stateMutability": "nonpayable",
      "type": "function"
    },
    {
      "inputs": [],
      "name": "nftArtScript",
      "outputs": [
        {
          "internalType": "contract NftArtScript",
          "name": "",
          "type": "address"
        }
      ],
      "stateMutability": "view",
      "type": "function"
    },
    {
      "inputs": [
        {
          "internalType": "uint256",
          "name": "",
          "type": "uint256"
        },
        {
          "internalType": "uint256",
          "name": "",
          "type": "uint256"
        }
      ],
      "name": "nftContentValues",
      "outputs": [
        {
          "internalType": "string",
          "name": "",
          "type": "string"
        }
      ],
      "stateMutability": "view",
      "type": "function"
    },
    {
      "inputs": [
        {
          "internalType": "uint256",
          "name": "",
          "type": "uint256"
        }
      ],
      "name": "nftImageHash",
      "outputs": [
        {
          "internalType": "string",
          "name": "",
          "type": "string"
        }
      ],
      "stateMutability": "view",
      "type": "function"
    },
    {
      "inputs": [],
      "name": "owner",
      "outputs": [
        {
          "internalType": "address",
          "name": "",
          "type": "address"
        }
      ],
      "stateMutability": "view",
      "type": "function"
    },
    {
      "inputs": [],
      "name": "renounceOwnership",
      "outputs": [],
      "stateMutability": "nonpayable",
      "type": "function"
    },
    {
      "inputs": [
        {
          "internalType": "string",
          "name": "",
          "type": "string"
        }
      ],
      "name": "schoolIdToTokenId",
      "outputs": [
        {
          "internalType": "uint256",
          "name": "",
          "type": "uint256"
        }
      ],
      "stateMutability": "view",
      "type": "function"
    },
    {
      "inputs": [
        {
          "internalType": "uint256",
          "name": "",
          "type": "uint256"
        }
      ],
      "name": "tokenIdToSchoolId",
      "outputs": [
        {
          "internalType": "string",
          "name": "",
          "type": "string"
        }
      ],
      "stateMutability": "view",
      "type": "function"
    },
    {
      "inputs": [
        {
          "internalType": "address",
          "name": "newOwner",
          "type": "address"
        }
      ],
      "name": "transferOwnership",
      "outputs": [],
      "stateMutability": "nonpayable",
      "type": "function"
    },
    {
      "inputs": [
        {
          "internalType": "string",
          "name": "_baseArtScript",
          "type": "string"
        }
      ],
      "name": "updateBaseArtScript",
      "outputs": [],
      "stateMutability": "nonpayable",
      "type": "function"
    },
    {
      "inputs": [
        {
          "internalType": "address",
          "name": "_contentManager",
          "type": "address"
        },
        {
          "internalType": "bool",
          "name": "_status",
          "type": "bool"
        }
      ],
      "name": "updateContentManager",
      "outputs": [],
      "stateMutability": "nonpayable",
      "type": "function"
    },
    {
      "inputs": [
        {
          "internalType": "uint256",
          "name": "_tokenId",
          "type": "uint256"
        },
        {
          "internalType": "string[8]",
          "name": "_values",
          "type": "string[8]"
        }
      ],
      "name": "updateNftContent",
      "outputs": [],
      "stateMutability": "nonpayable",
      "type": "function"
    },
    {
      "inputs": [
        {
          "internalType": "string",
          "name": "_schoolId",
          "type": "string"
        },
        {
          "internalType": "string",
          "name": "_imageHash",
          "type": "string"
        }
      ],
      "name": "updateNftImageHash",
      "outputs": [],
      "stateMutability": "nonpayable",
      "type": "function"
    }
  ],
  "bytecode": "0x600a610180818152697363686f6f6c4e616d6560b01b6101a05260809081526101c0918252697363686f6f6c5479706560b01b6101e05260a091909152600761020090815266636f756e74727960c81b6102205260c0526009610240908152686c6f6e67697475646560b81b6102605260e0526008610280818152676c6174697475646560c01b6102a05261010052600c6102c09081526b636f6e6e656374697669747960a01b6102e0526101205260166103009081527f636f7665726167655f617661696c616269746c69747900000000000000000000610320526101405261038060405260176103409081527f656c6563747269636974795f617661696c6162696c7479000000000000000000610360526101605262000124916002916200030c565b503480156200013257600080fd5b5060405162003c2838038062003c28833981016040819052620001559162000417565b6200016033620001db565b600a6200016e828262000581565b50806040516200017e906200035c565b6200018a91906200064d565b604051809103906000f080158015620001a7573d6000803e3d6000fd5b50600f80546001600160a01b0319166001600160a01b0392909216919091179055620001d3826200022b565b505062000682565b600080546001600160a01b038381166001600160a01b0319831681178455604051919092169283917f8be0079c531659141344cd1fd0a4f28419497f9722a3daafe3b4186f6b6457e09190a35050565b62000235620002ae565b6001600160a01b038116620002a05760405162461bcd60e51b815260206004820152602660248201527f4f776e61626c653a206e6577206f776e657220697320746865207a65726f206160448201526564647265737360d01b60648201526084015b60405180910390fd5b620002ab81620001db565b50565b6000546001600160a01b031633146200030a5760405162461bcd60e51b815260206004820181905260248201527f4f776e61626c653a2063616c6c6572206973206e6f7420746865206f776e6572604482015260640162000297565b565b82600881019282156200034a579160200282015b828111156200034a578251829062000339908262000581565b509160200191906001019062000320565b50620003589291506200036a565b5090565b610d6b8062002ebd83390190565b80821115620003585760006200038182826200038b565b506001016200036a565b5080546200039990620004f2565b6000825580601f10620003aa575050565b601f016020900490600052602060002090810190620002ab91905b80821115620003585760008155600101620003c5565b634e487b7160e01b600052604160045260246000fd5b60005b838110156200040e578181015183820152602001620003f4565b50506000910152565b600080604083850312156200042b57600080fd5b82516001600160a01b03811681146200044357600080fd5b60208401519092506001600160401b03808211156200046157600080fd5b818501915085601f8301126200047657600080fd5b8151818111156200048b576200048b620003db565b604051601f8201601f19908116603f01168101908382118183101715620004b657620004b6620003db565b81604052828152886020848701011115620004d057600080fd5b620004e3836020830160208801620003f1565b80955050505050509250929050565b600181811c908216806200050757607f821691505b6020821081036200052857634e487b7160e01b600052602260045260246000fd5b50919050565b601f8211156200057c57600081815260208120601f850160051c81016020861015620005575750805b601f850160051c820191505b81811015620005785782815560010162000563565b5050505b505050565b81516001600160401b038111156200059d576200059d620003db565b620005b581620005ae8454620004f2565b846200052e565b602080601f831160018114620005ed5760008415620005d45750858301515b600019600386901b1c1916600185901b17855562000578565b600085815260208120601f198616915b828110156200061e57888601518255948401946001909101908401620005fd565b50858210156200063d5787850151600019600388901b60f8161c191681555b5050505050600190811b01905550565b60208152600082518060208401526200066e816040850160208701620003f1565b601f01601f19169190910160400192915050565b61282b80620006926000396000f3fe60806040523480156200001157600080fd5b50600436106200015c5760003560e01c8063ac9650d811620000c7578063c954f4501162000086578063c954f450146200030e578063d0bcd29c1462000325578063db4897b0146200033c578063f2537fb3146200036a578063f2fde38b1462000381578063fa01b1be146200039857600080fd5b8063ac9650d8146200026c578063ae4a0e431462000292578063b27c13af14620002a9578063b915358214620002c0578063bac5ba3c14620002f757600080fd5b8063715018a61162000120578063715018a614620002015780637e00b3d8146200020b5780638da5cb5b14620002225780639033add91462000234578063a7b924d8146200023e578063ac2063a2146200025557600080fd5b80629a9b7b14620001615780630cb6aaf1146200017e5780633977913114620001a45780634bda624514620001d15780635045c74814620001ea575b600080fd5b6200016b620003af565b6040519081526020015b60405180910390f35b620001956200018f36600462001068565b620003c0565b604051620001759190620010d6565b600f54620001b8906001600160a01b031681565b6040516001600160a01b03909116815260200162000175565b620001e8620001e2366004620011e9565b62000469565b005b620001e8620001fb3660046200129a565b62000555565b620001e862000608565b620001956200021c36600462001305565b62000620565b6000546001600160a01b0316620001b8565b620001956200064f565b620001956200024f36600462001068565b6200065e565b620001956200026636600462001068565b62000679565b620002836200027d36600462001328565b620006f9565b604051620001759190620013a2565b6200016b620002a336600462001068565b62000802565b62000195620002ba36600462001068565b62000914565b620002e6620002d136600462001420565b60106020526000908152604090205460ff1681565b604051901515815260200162000175565b620001956200030836600462001068565b620009a1565b620001956200031f36600462001068565b62000a2c565b6200016b620003363660046200143e565b62000a47565b6200016b6200034d3660046200143e565b8051602081830181018051600d8252928201919093012091525481565b620001e86200037b3660046200143e565b62000b27565b620001e86200039236600462001420565b62000b9c565b620001e8620003a936600462001477565b62000c1b565b6000620003bb60015490565b905090565b60028160088110620003d157600080fd5b018054909150620003e290620014b7565b80601f01602080910402602001604051908101604052809291908181526020018280546200041090620014b7565b8015620004615780601f10620004355761010080835404028352916020019162000461565b820191906000526020600020905b8154815290600101906020018083116200044357829003601f168201915b505050505081565b3360009081526010602052604090205460ff16620004a45760405162461bcd60e51b81526004016200049b90620014ed565b60405180910390fd5b60005b60088110156200051657818160088110620004c657620004c66200154a565b6020020151600b60008581526020019081526020016000208260088110620004f257620004f26200154a565b0190620005009082620015b3565b50806200050d8162001696565b915050620004a7565b50817f3fabf2b4ed7f0c5fa9312837be078dab6c57b6dc19549de0054ac0e9d1b2e22882604051620005499190620016b2565b60405180910390a25050565b3360009081526010602052604090205460ff16620005875760405162461bcd60e51b81526004016200049b90620014ed565b6000600d836040516200059b919062001704565b9081526040805160209281900383019020546000818152600c9093529120909150620005c88382620015b3565b50807f9637184fe0ea83eb7ec75d83c609d6093a766dbe41b8b771c4489a3b65c6d0ca83604051620005fb9190620010d6565b60405180910390a2505050565b6200061262000c50565b6200061e600062000cac565b565b600b60205281600052604060002081600881106200063d57600080fd5b018054909250620003e29150620014b7565b600a8054620003e290620014b7565b600e6020526000908152604090208054620003e290620014b7565b60606000620006888362000914565b90506000620006cc82600c6000878152602001908152602001600020604051602001620006b79291906200179d565b60405160208183030381529060405262000cfc565b905080604051602001620006e1919062001815565b60405160208183030381529060405292505050919050565b60608167ffffffffffffffff811115620007175762000717620010eb565b6040519080825280602002602001820160405280156200074c57816020015b6060815260200190600190039081620007365790505b50905060005b82811015620007fa57620007c4308585848181106200077557620007756200154a565b90506020028101906200078991906200185c565b8080601f01602080910402602001604051908101604052809392919081815260200183838082843760009201919091525062000e7792505050565b828281518110620007d957620007d96200154a565b60200260200101819052508080620007f19062001696565b91505062000752565b505b92915050565b6000818152600b6020526040808220815161010081019092528291620008de91600884835b82821015620008d45783820180546200084090620014b7565b80601f01602080910402602001604051908101604052809291908181526020018280546200086e90620014b7565b8015620008bf5780601f106200089357610100808354040283529160200191620008bf565b820191906000526020600020905b815481529060010190602001808311620008a157829003601f168201915b50505050508152602001906001019062000827565b5050505062000e9f565b60408051602081018690529081018290529091506060015b60405160208183030381529060405280519060200120915050919050565b606060005b60088110156200099b5781600282600881106200093a576200093a6200154a565b6000868152600b6020526040902091019083600881106200095f576200095f6200154a565b016040516020016200097493929190620018ad565b60405160208183030381529060405291508080620009929062001696565b91505062000919565b50919050565b60606000620009b08362000802565b600f54604051633adc010160e21b8152600481018390529192506001600160a01b03169063eb70040490602401600060405180830381865afa158015620009fb573d6000803e3d6000fd5b505050506040513d6000823e601f3d908101601f1916820160405262000a2591908101906200191d565b9392505050565b600c6020526000908152604090208054620003e290620014b7565b3360009081526010602052604081205460ff1662000a795760405162461bcd60e51b81526004016200049b90620014ed565b600d8260405162000a8b919062001704565b90815260200160405180910390205460000362000afe5762000ab1600180546001019055565b600062000abd60015490565b905080600d8460405162000ad2919062001704565b9081526040805160209281900383019020929092556000838152600e90915220620007fa8482620015b3565b600d8260405162000b10919062001704565b90815260200160405180910390205490505b919050565b62000b3162000c50565b600a62000b3f8282620015b3565b508060405162000b4f906200105a565b62000b5b9190620010d6565b604051809103906000f08015801562000b78573d6000803e3d6000fd5b50600f80546001600160a01b0319166001600160a01b039290921691909117905550565b62000ba662000c50565b6001600160a01b03811662000c0d5760405162461bcd60e51b815260206004820152602660248201527f4f776e61626c653a206e6577206f776e657220697320746865207a65726f206160448201526564647265737360d01b60648201526084016200049b565b62000c188162000cac565b50565b62000c2562000c50565b6001600160a01b03919091166000908152601060205260409020805460ff1916911515919091179055565b6000546001600160a01b031633146200061e5760405162461bcd60e51b815260206004820181905260248201527f4f776e61626c653a2063616c6c6572206973206e6f7420746865206f776e657260448201526064016200049b565b600080546001600160a01b038381166001600160a01b0319831681178455604051919092169283917f8be0079c531659141344cd1fd0a4f28419497f9722a3daafe3b4186f6b6457e09190a35050565b6060815160000362000d1c57505060408051602081019091526000815290565b60006040518060600160405280604081526020016200278f604091399050600060038451600262000d4e91906200199d565b62000d5a9190620019b3565b62000d67906004620019d6565b9050600062000d788260206200199d565b67ffffffffffffffff81111562000d935762000d93620010eb565b6040519080825280601f01601f19166020018201604052801562000dbe576020820181803683370190505b509050818152600183018586518101602084015b8183101562000e2e5760039283018051603f601282901c811687015160f890811b8552600c83901c8216880151811b6001860152600683901c8216880151811b60028601529116860151901b9382019390935260040162000dd2565b60038951066001811462000e4b576002811462000e5d5762000e69565b613d3d60f01b60011983015262000e69565b603d60f81b6000198301525b509398975050505050505050565b606062000a258383604051806060016040528060278152602001620027cf6027913962000ec2565b60008062000ead8362000f40565b905080604051602001620008f6919062001704565b6060600080856001600160a01b03168560405162000ee1919062001704565b600060405180830381855af49150503d806000811462000f1e576040519150601f19603f3d011682016040523d82523d6000602084013e62000f23565b606091505b509150915062000f368683838762000fa5565b9695505050505050565b60608060005b6008811015620007fa578184826008811062000f665762000f666200154a565b602002015160405160200162000f7e929190620019f0565b6040516020818303038152906040529150808062000f9c9062001696565b91505062000f46565b606083156200101957825160000362001011576001600160a01b0385163b620010115760405162461bcd60e51b815260206004820152601d60248201527f416464726573733a2063616c6c20746f206e6f6e2d636f6e747261637400000060448201526064016200049b565b508162001025565b6200102583836200102d565b949350505050565b8151156200103e5781518083602001fd5b8060405162461bcd60e51b81526004016200049b9190620010d6565b610d6b8062001a2483390190565b6000602082840312156200107b57600080fd5b5035919050565b60005b838110156200109f57818101518382015260200162001085565b50506000910152565b60008151808452620010c281602086016020860162001082565b601f01601f19169290920160200192915050565b60208152600062000a256020830184620010a8565b634e487b7160e01b600052604160045260246000fd5b604051610100810167ffffffffffffffff81118282101715620011285762001128620010eb565b60405290565b604051601f8201601f1916810167ffffffffffffffff811182821017156200115a576200115a620010eb565b604052919050565b600067ffffffffffffffff8211156200117f576200117f620010eb565b50601f01601f191660200190565b600082601f8301126200119f57600080fd5b8135620011b6620011b08262001162565b6200112e565b818152846020838601011115620011cc57600080fd5b816020850160208301376000918101602001919091529392505050565b60008060408385031215620011fd57600080fd5b8235915060208084013567ffffffffffffffff808211156200121e57600080fd5b818601915086601f8301126200123357600080fd5b6200123d62001101565b806101008401898111156200125157600080fd5b845b818110156200128a578035858111156200126d5760008081fd5b6200127b8c8289016200118d565b85525092860192860162001253565b5096999098509650505050505050565b60008060408385031215620012ae57600080fd5b823567ffffffffffffffff80821115620012c757600080fd5b620012d5868387016200118d565b93506020850135915080821115620012ec57600080fd5b50620012fb858286016200118d565b9150509250929050565b600080604083850312156200131957600080fd5b50508035926020909101359150565b600080602083850312156200133c57600080fd5b823567ffffffffffffffff808211156200135557600080fd5b818501915085601f8301126200136a57600080fd5b8135818111156200137a57600080fd5b8660208260051b85010111156200139057600080fd5b60209290920196919550909350505050565b6000602080830181845280855180835260408601915060408160051b870101925083870160005b82811015620013fb57603f19888603018452620013e8858351620010a8565b94509285019290850190600101620013c9565b5092979650505050505050565b80356001600160a01b038116811462000b2257600080fd5b6000602082840312156200143357600080fd5b62000a258262001408565b6000602082840312156200145157600080fd5b813567ffffffffffffffff8111156200146957600080fd5b62001025848285016200118d565b600080604083850312156200148b57600080fd5b620014968362001408565b915060208301358015158114620014ac57600080fd5b809150509250929050565b600181811c90821680620014cc57607f821691505b6020821081036200099b57634e487b7160e01b600052602260045260246000fd5b60208082526037908201527f4e6674436f6e74656e743a204f6e6c7920636f6e74656e74206d616e6167657260408201527f2063616e2063616c6c20746869732066756e6374696f6e000000000000000000606082015260800190565b634e487b7160e01b600052603260045260246000fd5b601f821115620015ae57600081815260208120601f850160051c81016020861015620015895750805b601f850160051c820191505b81811015620015aa5782815560010162001595565b5050505b505050565b815167ffffffffffffffff811115620015d057620015d0620010eb565b620015e881620015e18454620014b7565b8462001560565b602080601f831160018114620016205760008415620016075750858301515b600019600386901b1c1916600185901b178555620015aa565b600085815260208120601f198616915b82811015620016515788860151825594840194600190910190840162001630565b5085821015620016705787850151600019600388901b60f8161c191681555b5050505050600190811b01905550565b634e487b7160e01b600052601160045260246000fd5b600060018201620016ab57620016ab62001680565b5060010190565b6020808252600090610120830183820185845b6008811015620016f857601f19878503018352620016e5848351620010a8565b93509184019190840190600101620016c5565b50919695505050505050565b600082516200171881846020870162001082565b9190910192915050565b600081546200173181620014b7565b600182811680156200174c5760018114620017625762001793565b60ff198416875282151583028701945062001793565b8560005260208060002060005b858110156200178a5781548a8201529084019082016200176f565b50505082870194505b5050505092915050565b607b60f81b815260008351620017bb81600185016020880162001082565b7f22696d616765223a2022646174613a696d6167652f7376672b786d6c3b62617360019184019182015263194d8d0b60e21b602182015262001801602582018562001722565b61227d60f01b815260020195945050505050565b7f646174613a6170706c69636174696f6e2f6a736f6e3b6261736536342c0000008152600082516200184f81601d85016020870162001082565b91909101601d0192915050565b6000808335601e198436030181126200187457600080fd5b83018035915067ffffffffffffffff8211156200189057600080fd5b602001915036819003821315620018a657600080fd5b9250929050565b60008451620018c181846020890162001082565b601160f91b90830181815290620018dc600183018762001722565b9150808252620101d160ed1b600183015280600483015262001902600583018662001722565b90815261016160f51b60018201526003019695505050505050565b6000602082840312156200193057600080fd5b815167ffffffffffffffff8111156200194857600080fd5b8201601f810184136200195a57600080fd5b80516200196b620011b08262001162565b8181528560208385010111156200198157600080fd5b6200199482602083016020860162001082565b95945050505050565b80820180821115620007fc57620007fc62001680565b600082620019d157634e487b7160e01b600052601260045260246000fd5b500490565b8082028115828204841417620007fc57620007fc62001680565b6000835162001a0481846020880162001082565b83519083019062001a1a81836020880162001082565b0194935050505056fe60806040523480156200001157600080fd5b5060405162000d6b38038062000d6b833981016040819052620000349162000060565b6000620000428282620001c4565b505062000290565b634e487b7160e01b600052604160045260246000fd5b600060208083850312156200007457600080fd5b82516001600160401b03808211156200008c57600080fd5b818501915085601f830112620000a157600080fd5b815181811115620000b657620000b66200004a565b604051601f8201601f19908116603f01168101908382118183101715620000e157620000e16200004a565b816040528281528886848701011115620000fa57600080fd5b600093505b828410156200011e5784840186015181850187015292850192620000ff565b600086848301015280965050505050505092915050565b600181811c908216806200014a57607f821691505b6020821081036200016b57634e487b7160e01b600052602260045260246000fd5b50919050565b601f821115620001bf57600081815260208120601f850160051c810160208610156200019a5750805b601f850160051c820191505b81811015620001bb57828155600101620001a6565b5050505b505050565b81516001600160401b03811115620001e057620001e06200004a565b620001f881620001f1845462000135565b8462000171565b602080601f831160018114620002305760008415620002175750858301515b600019600386901b1c1916600185901b178555620001bb565b600085815260208120601f198616915b82811015620002615788860151825594840194600190910190840162000240565b5085821015620002805787850151600019600388901b60f8161c191681555b5050505050600190811b01905550565b610acb80620002a06000396000f3fe608060405234801561001057600080fd5b50600436106100575760003560e01c80631706c07e1461005c5780639033add91461008557806399a499fc1461008d578063ac9650d814610095578063eb700404146100b5575b600080fd5b61006f61006a366004610584565b6100c8565b60405161007c91906105ed565b60405180910390f35b61006f610177565b61006f610205565b6100a86100a3366004610600565b610212565b60405161007c9190610675565b61006f6100c3366004610584565b610306565b60408051602081019091526000808252606091905b60068110156101705760006100f38260306106ed565b85901c62ffffff169050600061010882610360565b9050838160405160200161011d929190610704565b60405160208183030381529060405293508260050361015b578381604051602001610149929190610740565b60405160208183030381529060405293505b505080806101689061076f565b9150506100dd565b5092915050565b6000805461018490610788565b80601f01602080910402602001604051908101604052809291908181526020018280546101b090610788565b80156101fd5780601f106101d2576101008083540402835291602001916101fd565b820191906000526020600020905b8154815290600101906020018083116101e057829003601f168201915b505050505081565b6001805461018490610788565b60608167ffffffffffffffff81111561022d5761022d6107c2565b60405190808252806020026020018201604052801561026057816020015b606081526020019060019003908161024b5790505b50905060005b82811015610170576102d030858584818110610284576102846107d8565b905060200281019061029691906107ee565b8080601f0160208091040260200160405190810160405280939291908181526020018383808284376000920191909152506103f792505050565b8282815181106102e2576102e26107d8565b602002602001018190525080806102f89061076f565b915050610266565b92915050565b60606000610313836100c8565b905060006040518060e0016040528060ab81526020016109c460ab91399050808260006040516020016103489392919061083c565b60405160208183030381529060405292505050919050565b6040805160068082528183019092526060916000919060208201818036833701905050905060005b600681101561017057600061039e8260046106ed565b6103a9906014610962565b85901c600f1690506103ba81610423565b8383815181106103cc576103cc6107d8565b60200101906001600160f81b031916908160001a9053505080806103ef9061076f565b915050610388565b606061041c8383604051806060016040528060278152602001610a6f6027913961045c565b9392505050565b6000600a8260ff1610156104455761043c826030610975565b60f81b92915050565b600a610452836041610975565b61043c919061098e565b6060600080856001600160a01b03168560405161047991906109a7565b600060405180830381855af49150503d80600081146104b4576040519150601f19603f3d011682016040523d82523d6000602084013e6104b9565b606091505b50915091506104ca868383876104d4565b9695505050505050565b60608315610548578251600003610541576001600160a01b0385163b6105415760405162461bcd60e51b815260206004820152601d60248201527f416464726573733a2063616c6c20746f206e6f6e2d636f6e747261637400000060448201526064015b60405180910390fd5b5081610552565b610552838361055a565b949350505050565b81511561056a5781518083602001fd5b8060405162461bcd60e51b815260040161053891906105ed565b60006020828403121561059657600080fd5b5035919050565b60005b838110156105b85781810151838201526020016105a0565b50506000910152565b600081518084526105d981602086016020860161059d565b601f01601f19169290920160200192915050565b60208152600061041c60208301846105c1565b6000806020838503121561061357600080fd5b823567ffffffffffffffff8082111561062b57600080fd5b818501915085601f83011261063f57600080fd5b81358181111561064e57600080fd5b8660208260051b850101111561066357600080fd5b60209290920196919550909350505050565b6000602080830181845280855180835260408601915060408160051b870101925083870160005b828110156106ca57603f198886030184526106b88583516105c1565b9450928501929085019060010161069c565b5092979650505050505050565b634e487b7160e01b600052601160045260246000fd5b8082028115828204841417610300576103006106d7565b6000835161071681846020880161059d565b83519083019061072a81836020880161059d565b612e3760f11b9101908152600201949350505050565b6000835161075281846020880161059d565b83519083019061076681836020880161059d565b01949350505050565b600060018201610781576107816106d7565b5060010190565b600181811c9082168061079c57607f821691505b6020821081036107bc57634e487b7160e01b600052602260045260246000fd5b50919050565b634e487b7160e01b600052604160045260246000fd5b634e487b7160e01b600052603260045260246000fd5b6000808335601e1984360301811261080557600080fd5b83018035915067ffffffffffffffff82111561082057600080fd5b60200191503681900382131561083557600080fd5b9250929050565b60008451602061084f8285838a0161059d565b7051031b7b739ba1031b7b637b939901e90360751b918401918252855161087c8160128501848a0161059d565b7f602e73706c697428605c6e60292e6d617028686578203d3e20686578546f52676012939091019283015267622868657829293b60c01b60328301528454603a90600090600181811c90808316806108d557607f831692505b86831081036108f257634e487b7160e01b85526022600452602485fd5b808015610906576001811461091f57610950565b60ff198516898801528315158402890187019550610950565b60008c81526020902060005b858110156109465781548b82018a015290840190890161092b565b505086848a010195505b50939c9b505050505050505050505050565b81810381811115610300576103006106d7565b60ff8181168382160190811115610300576103006106d7565b60ff8281168282160390811115610300576103006106d7565b600082516109b981846020870161059d565b919091019291505056fe636f6e737420686578546f526762203d20686578203d3e206865782e7265706c616365282f5e233f285b612d665c645d29285b612d665c645d29285b612d665c645d29242f692c286d2c20722c20672c206229203d3e20222322202b2072202b2072202b2067202b2067202b2062202b20622c292e737562737472696e672831292e6d61746368282f2e7b327d2f67292e6d61702878203d3e207061727365496e7428782c20313629293b416464726573733a206c6f772d6c6576656c2064656c65676174652063616c6c206661696c6564a2646970667358221220ed239bb1cb5f912652d90082804d3e4630132ad9e21403df40e08e45e314607764736f6c634300081100334142434445464748494a4b4c4d4e4f505152535455565758595a6162636465666768696a6b6c6d6e6f707172737475767778797a303132333435363738392b2f416464726573733a206c6f772d6c6576656c2064656c65676174652063616c6c206661696c6564a2646970667358221220030205737dd346de3c287e51ee25e7ee346ff14f84991d2998484b77c727a9f364736f6c6343000811003360806040523480156200001157600080fd5b5060405162000d6b38038062000d6b833981016040819052620000349162000060565b6000620000428282620001c4565b505062000290565b634e487b7160e01b600052604160045260246000fd5b600060208083850312156200007457600080fd5b82516001600160401b03808211156200008c57600080fd5b818501915085601f830112620000a157600080fd5b815181811115620000b657620000b66200004a565b604051601f8201601f19908116603f01168101908382118183101715620000e157620000e16200004a565b816040528281528886848701011115620000fa57600080fd5b600093505b828410156200011e5784840186015181850187015292850192620000ff565b600086848301015280965050505050505092915050565b600181811c908216806200014a57607f821691505b6020821081036200016b57634e487b7160e01b600052602260045260246000fd5b50919050565b601f821115620001bf57600081815260208120601f850160051c810160208610156200019a5750805b601f850160051c820191505b81811015620001bb57828155600101620001a6565b5050505b505050565b81516001600160401b03811115620001e057620001e06200004a565b620001f881620001f1845462000135565b8462000171565b602080601f831160018114620002305760008415620002175750858301515b600019600386901b1c1916600185901b178555620001bb565b600085815260208120601f198616915b82811015620002615788860151825594840194600190910190840162000240565b5085821015620002805787850151600019600388901b60f8161c191681555b5050505050600190811b01905550565b610acb80620002a06000396000f3fe608060405234801561001057600080fd5b50600436106100575760003560e01c80631706c07e1461005c5780639033add91461008557806399a499fc1461008d578063ac9650d814610095578063eb700404146100b5575b600080fd5b61006f61006a366004610584565b6100c8565b60405161007c91906105ed565b60405180910390f35b61006f610177565b61006f610205565b6100a86100a3366004610600565b610212565b60405161007c9190610675565b61006f6100c3366004610584565b610306565b60408051602081019091526000808252606091905b60068110156101705760006100f38260306106ed565b85901c62ffffff169050600061010882610360565b9050838160405160200161011d929190610704565b60405160208183030381529060405293508260050361015b578381604051602001610149929190610740565b60405160208183030381529060405293505b505080806101689061076f565b9150506100dd565b5092915050565b6000805461018490610788565b80601f01602080910402602001604051908101604052809291908181526020018280546101b090610788565b80156101fd5780601f106101d2576101008083540402835291602001916101fd565b820191906000526020600020905b8154815290600101906020018083116101e057829003601f168201915b505050505081565b6001805461018490610788565b60608167ffffffffffffffff81111561022d5761022d6107c2565b60405190808252806020026020018201604052801561026057816020015b606081526020019060019003908161024b5790505b50905060005b82811015610170576102d030858584818110610284576102846107d8565b905060200281019061029691906107ee565b8080601f0160208091040260200160405190810160405280939291908181526020018383808284376000920191909152506103f792505050565b8282815181106102e2576102e26107d8565b602002602001018190525080806102f89061076f565b915050610266565b92915050565b60606000610313836100c8565b905060006040518060e0016040528060ab81526020016109c460ab91399050808260006040516020016103489392919061083c565b60405160208183030381529060405292505050919050565b6040805160068082528183019092526060916000919060208201818036833701905050905060005b600681101561017057600061039e8260046106ed565b6103a9906014610962565b85901c600f1690506103ba81610423565b8383815181106103cc576103cc6107d8565b60200101906001600160f81b031916908160001a9053505080806103ef9061076f565b915050610388565b606061041c8383604051806060016040528060278152602001610a6f6027913961045c565b9392505050565b6000600a8260ff1610156104455761043c826030610975565b60f81b92915050565b600a610452836041610975565b61043c919061098e565b6060600080856001600160a01b03168560405161047991906109a7565b600060405180830381855af49150503d80600081146104b4576040519150601f19603f3d011682016040523d82523d6000602084013e6104b9565b606091505b50915091506104ca868383876104d4565b9695505050505050565b60608315610548578251600003610541576001600160a01b0385163b6105415760405162461bcd60e51b815260206004820152601d60248201527f416464726573733a2063616c6c20746f206e6f6e2d636f6e747261637400000060448201526064015b60405180910390fd5b5081610552565b610552838361055a565b949350505050565b81511561056a5781518083602001fd5b8060405162461bcd60e51b815260040161053891906105ed565b60006020828403121561059657600080fd5b5035919050565b60005b838110156105b85781810151838201526020016105a0565b50506000910152565b600081518084526105d981602086016020860161059d565b601f01601f19169290920160200192915050565b60208152600061041c60208301846105c1565b6000806020838503121561061357600080fd5b823567ffffffffffffffff8082111561062b57600080fd5b818501915085601f83011261063f57600080fd5b81358181111561064e57600080fd5b8660208260051b850101111561066357600080fd5b60209290920196919550909350505050565b6000602080830181845280855180835260408601915060408160051b870101925083870160005b828110156106ca57603f198886030184526106b88583516105c1565b9450928501929085019060010161069c565b5092979650505050505050565b634e487b7160e01b600052601160045260246000fd5b8082028115828204841417610300576103006106d7565b6000835161071681846020880161059d565b83519083019061072a81836020880161059d565b612e3760f11b9101908152600201949350505050565b6000835161075281846020880161059d565b83519083019061076681836020880161059d565b01949350505050565b600060018201610781576107816106d7565b5060010190565b600181811c9082168061079c57607f821691505b6020821081036107bc57634e487b7160e01b600052602260045260246000fd5b50919050565b634e487b7160e01b600052604160045260246000fd5b634e487b7160e01b600052603260045260246000fd5b6000808335601e1984360301811261080557600080fd5b83018035915067ffffffffffffffff82111561082057600080fd5b60200191503681900382131561083557600080fd5b9250929050565b60008451602061084f8285838a0161059d565b7051031b7b739ba1031b7b637b939901e90360751b918401918252855161087c8160128501848a0161059d565b7f602e73706c697428605c6e60292e6d617028686578203d3e20686578546f52676012939091019283015267622868657829293b60c01b60328301528454603a90600090600181811c90808316806108d557607f831692505b86831081036108f257634e487b7160e01b85526022600452602485fd5b808015610906576001811461091f57610950565b60ff198516898801528315158402890187019550610950565b60008c81526020902060005b858110156109465781548b82018a015290840190890161092b565b505086848a010195505b50939c9b505050505050505050505050565b81810381811115610300576103006106d7565b60ff8181168382160190811115610300576103006106d7565b60ff8281168282160390811115610300576103006106d7565b600082516109b981846020870161059d565b919091019291505056fe636f6e737420686578546f526762203d20686578203d3e206865782e7265706c616365282f5e233f285b612d665c645d29285b612d665c645d29285b612d665c645d29242f692c286d2c20722c20672c206229203d3e20222322202b2072202b2072202b2067202b2067202b2062202b20622c292e737562737472696e672831292e6d61746368282f2e7b327d2f67292e6d61702878203d3e207061727365496e7428782c20313629293b416464726573733a206c6f772d6c6576656c2064656c65676174652063616c6c206661696c6564a2646970667358221220ed239bb1cb5f912652d90082804d3e4630132ad9e21403df40e08e45e314607764736f6c63430008110033",
  "linkReferences": {},
  "deployedLinkReferences": {}
}