{
    "_format": "hh-sol-artifact-1",
    "contractName": "NftContent",
    "sourceName": "src/contracts/NftContent.sol",
    "abi": [
        {
            "anonymous": false,
            "inputs": [
                {
                    "indexed": true,
                    "internalType": "uint256",
                    "name": "tokenId",
                    "type": "uint256"
                },
                {
                    "indexed": false,
                    "internalType": "string[]",
                    "name": "values",
                    "type": "string[]"
                }
            ],
            "name": "UpdatedNftContent",
            "type": "event"
        },
        {
            "inputs": [
                {
                    "internalType": "uint256",
                    "name": "_tokenId",
                    "type": "uint256"
                }
            ],
            "name": "generateSvg",
            "outputs": [
                {
                    "internalType": "string",
                    "name": "svg",
                    "type": "string"
                }
            ],
            "stateMutability": "pure",
            "type": "function"
        },
        {
            "inputs": [
                {
                    "internalType": "uint256",
                    "name": "_tokenId",
                    "type": "uint256"
                }
            ],
            "name": "generateTokenData",
            "outputs": [
                {
                    "internalType": "string",
                    "name": "",
                    "type": "string"
                }
            ],
            "stateMutability": "view",
            "type": "function"
        },
        {
            "inputs": [
                {
                    "internalType": "uint256",
                    "name": "_tokenId",
                    "type": "uint256"
                }
            ],
            "name": "getMetadataContent",
            "outputs": [
                {
                    "internalType": "string",
                    "name": "_content",
                    "type": "string"
                }
            ],
            "stateMutability": "view",
            "type": "function"
        },
        {
            "inputs": [
                {
                    "internalType": "uint256",
                    "name": "tokenId",
                    "type": "uint256"
                },
                {
                    "internalType": "uint256",
                    "name": "n",
                    "type": "uint256"
                }
            ],
            "name": "isNthDigitOne",
            "outputs": [
                {
                    "internalType": "bool",
                    "name": "",
                    "type": "bool"
                }
            ],
            "stateMutability": "pure",
            "type": "function"
        },
        {
            "inputs": [
                {
                    "internalType": "uint256",
                    "name": "",
                    "type": "uint256"
                }
            ],
            "name": "keys",
            "outputs": [
                {
                    "internalType": "string",
                    "name": "",
                    "type": "string"
                }
            ],
            "stateMutability": "view",
            "type": "function"
        },
        {
            "inputs": [
                {
                    "internalType": "bytes[]",
                    "name": "data",
                    "type": "bytes[]"
                }
            ],
            "name": "multicall",
            "outputs": [
                {
                    "internalType": "bytes[]",
                    "name": "results",
                    "type": "bytes[]"
                }
            ],
            "stateMutability": "nonpayable",
            "type": "function"
        },
        {
            "inputs": [
                {
                    "internalType": "uint256",
                    "name": "",
                    "type": "uint256"
                },
                {
                    "internalType": "uint256",
                    "name": "",
                    "type": "uint256"
                }
            ],
            "name": "nftContentValues",
            "outputs": [
                {
                    "internalType": "string",
                    "name": "",
                    "type": "string"
                }
            ],
            "stateMutability": "view",
            "type": "function"
        },
        {
            "inputs": [
                {
                    "internalType": "uint256",
                    "name": "_tokenId",
                    "type": "uint256"
                },
                {
                    "internalType": "string[]",
                    "name": "_values",
                    "type": "string[]"
                }
            ],
            "name": "updateNftContent",
            "outputs": [],
            "stateMutability": "nonpayable",
            "type": "function"
        }
    ],
    "bytecode": "0x600a610180818152697363686f6f6c4e616d6560b01b6101a05260809081526101c0918252697363686f6f6c5479706560b01b6101e05260a091909152600761020090815266636f756e74727960c81b6102205260c0526009610240908152686c6f6e67697475646560b81b6102605260e0526008610280818152676c6174697475646560c01b6102a05261010052600c6102c09081526b636f6e6e656374697669747960a01b6102e0526101205260166103009081527f636f7665726167655f617661696c616269746c69747900000000000000000000610320526101405261038060405260176103409081527f656c6563747269636974795f617661696c6162696c74790000000000000000006103605261016052620001249160009162000139565b503480156200013257600080fd5b5062000381565b82805482825590600052602060002090810192821562000184579160200282015b82811115620001845782518290620001739082620002b5565b50916020019190600101906200015a565b506200019292915062000196565b5090565b8082111562000192576000620001ad8282620001b7565b5060010162000196565b508054620001c59062000226565b6000825580601f10620001d6575050565b601f016020900490600052602060002090810190620001f69190620001f9565b50565b5b80821115620001925760008155600101620001fa565b634e487b7160e01b600052604160045260246000fd5b600181811c908216806200023b57607f821691505b6020821081036200025c57634e487b7160e01b600052602260045260246000fd5b50919050565b601f821115620002b057600081815260208120601f850160051c810160208610156200028b5750805b601f850160051c820191505b81811015620002ac5782815560010162000297565b5050505b505050565b81516001600160401b03811115620002d157620002d162000210565b620002e981620002e2845462000226565b8462000262565b602080601f831160018114620003215760008415620003085750858301515b600019600386901b1c1916600185901b178555620002ac565b600085815260208120601f198616915b82811015620003525788860151825594840194600190910190840162000331565b5085821015620003715787850151600019600388901b60f8161c191681555b5050505050600190811b01905550565b61143e80620003916000396000f3fe608060405234801561001057600080fd5b50600436106100885760003560e01c8063ac9650d81161005b578063ac9650d8146100ff578063b27c13af1461011f578063bc921dc214610132578063d4d0a8ef1461014557600080fd5b80630cb6aaf11461008d5780635b731fe6146100b65780637e00b3d8146100d9578063ac2063a2146100ec575b600080fd5b6100a061009b366004610ac9565b61015a565b6040516100ad9190610b32565b60405180910390f35b6100c96100c4366004610b45565b610206565b60405190151581526020016100ad565b6100a06100e7366004610b45565b610215565b6100a06100fa366004610ac9565b61024d565b61011261010d366004610b67565b6102c9565b6040516100ad9190610bdc565b6100a061012d366004610ac9565b6103be565b6100a0610140366004610ac9565b610455565b610158610153366004610c85565b61058b565b005b6000818154811061016a57600080fd5b90600052602060002001600091509050805461018590610da9565b80601f01602080910402602001604051908101604052809291908181526020018280546101b190610da9565b80156101fe5780601f106101d3576101008083540402835291602001916101fe565b820191906000526020600020905b8154815290600101906020018083116101e157829003601f168201915b505050505081565b600182821c8116145b92915050565b6001602052816000526040600020818154811061023157600080fd5b9060005260206000200160009150915050805461018590610da9565b6060600061025a83610455565b90506000610267846103be565b9050600061029d82610278856106a8565b604051602001610289929190610ddd565b6040516020818303038152906040526106a8565b9050806040516020016102b09190610e5e565b6040516020818303038152906040529350505050919050565b60608167ffffffffffffffff8111156102e4576102e4610c3e565b60405190808252806020026020018201604052801561031757816020015b60608152602001906001900390816103025790505b50905060005b828110156103b7576103873085858481811061033b5761033b610ea3565b905060200281019061034d9190610eb9565b8080601f01602080910402602001604051908101604052809392919081815260200183838082843760009201919091525061080f92505050565b82828151811061039957610399610ea3565b602002602001018190525080806103af90610f1d565b91505061031d565b5092915050565b606060005b60005481101561044f5781600082815481106103e1576103e1610ea3565b9060005260206000200160016000868152602001908152602001600020838154811061040f5761040f610ea3565b9060005260206000200160405160200161042b93929190610fa9565b6040516020818303038152906040529150808061044790610f1d565b9150506103c3565b50919050565b60606040518060c001604052806094815260200161130e60949139905060005b61010081101561056357600061048b8483610206565b6104ae57604051806040016040528060018152602001600360fc1b8152506104c9565b604051806040016040528060018152602001603160f81b8152505b905060006104d8601084611029565b6104e390601461103d565b6104ee90600a611054565b905060006104fd601085611067565b61050890601461103d565b610513906014611054565b90508461051f8361083b565b6105288361083b565b8560405160200161053c949392919061107b565b6040516020818303038152906040529450505050808061055b90610f1d565b915050610475565b5080604051602001610575919061115f565b6040516020818303038152906040529050919050565b6000548151146106015760405162461bcd60e51b815260206004820152603660248201527f4e6674436f6e74656e743a2076616c756573206c656e677468206d75737420626044820152750ca40cae2eac2d840e8de40d6caf2e640d8cadccee8d60531b60648201526084015b60405180910390fd5b60005b815181101561066b576000838152600160205260409020825183908390811061062f5761062f610ea3565b6020908102919091018101518254600181018455600093845291909220019061065890826111dc565b508061066381610f1d565b915050610604565b50817f5ed10bf72ecf3b4e46951a0a3b5470bf7339ca354faed39b09b19ee8101075528260405161069c919061129c565b60405180910390a25050565b606081516000036106c757505060408051602081019091526000815290565b60006040518060600160405280604081526020016113a260409139905060006003845160026106f69190611054565b6107009190611067565b61070b90600461103d565b9050600061071a826020611054565b67ffffffffffffffff81111561073257610732610c3e565b6040519080825280601f01601f19166020018201604052801561075c576020820181803683370190505b509050818152600183018586518101602084015b818310156107ca5760039283018051603f601282901c811687015160f890811b8552600c83901c8216880151811b6001860152600683901c8216880151811b60028601529116860151901b93820193909352600401610770565b6003895106600181146107e457600281146107f557610801565b613d3d60f01b600119830152610801565b603d60f81b6000198301525b509398975050505050505050565b606061083483836040518060600160405280602781526020016113e2602791396108ce565b9392505050565b6060600061084883610946565b600101905060008167ffffffffffffffff81111561086857610868610c3e565b6040519080825280601f01601f191660200182016040528015610892576020820181803683370190505b5090508181016020015b600019016f181899199a1a9b1b9c1cb0b131b232b360811b600a86061a8153600a850494508461089c57509392505050565b6060600080856001600160a01b0316856040516108eb91906112f1565b600060405180830381855af49150503d8060008114610926576040519150601f19603f3d011682016040523d82523d6000602084013e61092b565b606091505b509150915061093c86838387610a1e565b9695505050505050565b60008072184f03e93ff9f4daa797ed6e38ed64bf6a1f0160401b83106109855772184f03e93ff9f4daa797ed6e38ed64bf6a1f0160401b830492506040015b6d04ee2d6d415b85acef810000000083106109b1576d04ee2d6d415b85acef8100000000830492506020015b662386f26fc1000083106109cf57662386f26fc10000830492506010015b6305f5e10083106109e7576305f5e100830492506008015b61271083106109fb57612710830492506004015b60648310610a0d576064830492506002015b600a831061020f5760010192915050565b60608315610a8d578251600003610a86576001600160a01b0385163b610a865760405162461bcd60e51b815260206004820152601d60248201527f416464726573733a2063616c6c20746f206e6f6e2d636f6e747261637400000060448201526064016105f8565b5081610a97565b610a978383610a9f565b949350505050565b815115610aaf5781518083602001fd5b8060405162461bcd60e51b81526004016105f89190610b32565b600060208284031215610adb57600080fd5b5035919050565b60005b83811015610afd578181015183820152602001610ae5565b50506000910152565b60008151808452610b1e816020860160208601610ae2565b601f01601f19169290920160200192915050565b6020815260006108346020830184610b06565b60008060408385031215610b5857600080fd5b50508035926020909101359150565b60008060208385031215610b7a57600080fd5b823567ffffffffffffffff80821115610b9257600080fd5b818501915085601f830112610ba657600080fd5b813581811115610bb557600080fd5b8660208260051b8501011115610bca57600080fd5b60209290920196919550909350505050565b6000602080830181845280855180835260408601915060408160051b870101925083870160005b82811015610c3157603f19888603018452610c1f858351610b06565b94509285019290850190600101610c03565b5092979650505050505050565b634e487b7160e01b600052604160045260246000fd5b604051601f8201601f1916810167ffffffffffffffff81118282101715610c7d57610c7d610c3e565b604052919050565b6000806040808486031215610c9957600080fd5b8335925060208085013567ffffffffffffffff80821115610cb957600080fd5b8187019150601f8881840112610cce57600080fd5b823582811115610ce057610ce0610c3e565b8060051b610cef868201610c54565b918252848101860191868101908c841115610d0957600080fd5b87870192505b83831015610d9657823586811115610d275760008081fd5b8701603f81018e13610d395760008081fd5b8881013587811115610d4d57610d4d610c3e565b610d5e818801601f19168b01610c54565b8181528f8c838501011115610d735760008081fd5b818c84018c83013760009181018b01919091528352509187019190870190610d0f565b8099505050505050505050509250929050565b600181811c90821680610dbd57607f821691505b60208210810361044f57634e487b7160e01b600052602260045260246000fd5b607b60f81b815260008351610df9816001850160208801610ae2565b7f22696d616765223a2022646174613a696d6167652f7376672b786d6c3b62617360019184019182015263194d8d0b60e21b60218201528351610e43816025840160208801610ae2565b61227d60f01b60259290910191820152602701949350505050565b7f646174613a6170706c69636174696f6e2f6a736f6e3b6261736536342c000000815260008251610e9681601d850160208701610ae2565b91909101601d0192915050565b634e487b7160e01b600052603260045260246000fd5b6000808335601e19843603018112610ed057600080fd5b83018035915067ffffffffffffffff821115610eeb57600080fd5b602001915036819003821315610f0057600080fd5b9250929050565b634e487b7160e01b600052601160045260246000fd5b600060018201610f2f57610f2f610f07565b5060010190565b60008154610f4381610da9565b60018281168015610f5b5760018114610f7057610f9f565b60ff1984168752821515830287019450610f9f565b8560005260208060002060005b85811015610f965781548a820152908401908201610f7d565b50505082870194505b5050505092915050565b60008451610fbb818460208901610ae2565b601160f91b90830181815290610fd46001830187610f36565b9150808252620101d160ed1b6001830152806004830152610ff86005830186610f36565b90815261016160f51b60018201526003019695505050505050565b634e487b7160e01b600052601260045260246000fd5b60008261103857611038611013565b500690565b808202811582820484141761020f5761020f610f07565b8082018082111561020f5761020f610f07565b60008261107657611076611013565b500490565b6000855161108d818460208a01610ae2565b681e3a32bc3a103c1e9160b91b90830190815285516110b3816009840160208a01610ae2565b6411103c9e9160d91b6009929091019182015284516110d981600e840160208901610ae2565b7f222077696474683d22313022206865696768743d2231302220666f6e742d7369600e92909101918201527f7a653d22312e35656d222066696c6c3d2223303030223e000000000000000000602e820152835161113d816045840160208801610ae2565b661e17ba32bc3a1f60c91b60459290910191820152604c019695505050505050565b60008251611171818460208701610ae2565b691e17b39f1e17b9bb339f60b11b920191825250600a01919050565b601f8211156111d757600081815260208120601f850160051c810160208610156111b45750805b601f850160051c820191505b818110156111d3578281556001016111c0565b5050505b505050565b815167ffffffffffffffff8111156111f6576111f6610c3e565b61120a816112048454610da9565b8461118d565b602080601f83116001811461123f57600084156112275750858301515b600019600386901b1c1916600185901b1785556111d3565b600085815260208120601f198616915b8281101561126e5788860151825594840194600190910190840161124f565b508582101561128c5787850151600019600388901b60f8161c191681555b5050505050600190811b01905550565b6000602080830181845280855180835260408601915060408160051b870101925083870160005b82811015610c3157603f198886030184526112df858351610b06565b945092850192908501906001016112c3565b60008251611303818460208701610ae2565b919091019291505056fe3c73766720786d6c6e733d22687474703a2f2f7777772e77332e6f72672f323030302f73766722207072657365727665417370656374526174696f3d22784d696e594d696e206d656574222076696577426f783d223020302033333020333330223e3c726563742077696474683d223130302522206865696768743d2231303025222066696c6c3d222366666622202f3e3c673e4142434445464748494a4b4c4d4e4f505152535455565758595a6162636465666768696a6b6c6d6e6f707172737475767778797a303132333435363738392b2f416464726573733a206c6f772d6c6576656c2064656c65676174652063616c6c206661696c6564a26469706673582212201194d8be8aeb973623a6e28019a28fe2c50a7e21234a2517f9564f140b34c75164736f6c63430008110033",
    "linkReferences": {},
    "deployedLinkReferences": {}
}