{
    "_format": "hh-sol-artifact-1",
    "contractName": "GigaSeller",
    "sourceName": "src/contracts/GigaSeller.sol",
    "abi": [
        {
            "inputs": [
                {
                    "internalType": "address",
                    "name": "_gigaAdmin",
                    "type": "address"
                },
                {
                    "internalType": "address",
                    "name": "_collectorNft",
                    "type": "address"
                },
                {
                    "internalType": "address",
                    "name": "_escrow",
                    "type": "address"
                },
                {
                    "internalType": "uint256",
                    "name": "_initialPrice",
                    "type": "uint256"
                },
                {
                    "internalType": "uint256",
                    "name": "_increment",
                    "type": "uint256"
                }
            ],
            "stateMutability": "nonpayable",
            "type": "constructor"
        },
        {
            "anonymous": false,
            "inputs": [
                {
                    "indexed": true,
                    "internalType": "uint256",
                    "name": "tokenId",
                    "type": "uint256"
                },
                {
                    "indexed": true,
                    "internalType": "address",
                    "name": "buyer",
                    "type": "address"
                },
                {
                    "indexed": true,
                    "internalType": "address",
                    "name": "transferedTo",
                    "type": "address"
                }
            ],
            "name": "NftPurchased",
            "type": "event"
        },
        {
            "anonymous": false,
            "inputs": [
                {
                    "indexed": true,
                    "internalType": "address",
                    "name": "previousOwner",
                    "type": "address"
                },
                {
                    "indexed": true,
                    "internalType": "address",
                    "name": "newOwner",
                    "type": "address"
                }
            ],
            "name": "OwnershipTransferred",
            "type": "event"
        },
        {
            "inputs": [],
            "name": "calculatePrice",
            "outputs": [
                {
                    "internalType": "uint256",
                    "name": "",
                    "type": "uint256"
                }
            ],
            "stateMutability": "view",
            "type": "function"
        },
        {
            "inputs": [],
            "name": "collectorNft",
            "outputs": [
                {
                    "internalType": "contract INft",
                    "name": "",
                    "type": "address"
                }
            ],
            "stateMutability": "view",
            "type": "function"
        },
        {
            "inputs": [],
            "name": "escrowContract",
            "outputs": [
                {
                    "internalType": "address payable",
                    "name": "",
                    "type": "address"
                }
            ],
            "stateMutability": "view",
            "type": "function"
        },
        {
            "inputs": [
                {
                    "internalType": "bytes[]",
                    "name": "data",
                    "type": "bytes[]"
                }
            ],
            "name": "multicall",
            "outputs": [
                {
                    "internalType": "bytes[]",
                    "name": "results",
                    "type": "bytes[]"
                }
            ],
            "stateMutability": "nonpayable",
            "type": "function"
        },
        {
            "inputs": [],
            "name": "owner",
            "outputs": [
                {
                    "internalType": "address",
                    "name": "",
                    "type": "address"
                }
            ],
            "stateMutability": "view",
            "type": "function"
        },
        {
            "inputs": [
                {
                    "internalType": "uint256",
                    "name": "_tokenId",
                    "type": "uint256"
                },
                {
                    "internalType": "address",
                    "name": "_transferTo",
                    "type": "address"
                }
            ],
            "name": "purchaseNft",
            "outputs": [],
            "stateMutability": "payable",
            "type": "function"
        },
        {
            "inputs": [],
            "name": "renounceOwnership",
            "outputs": [],
            "stateMutability": "nonpayable",
            "type": "function"
        },
        {
            "inputs": [
                {
                    "internalType": "address",
                    "name": "newOwner",
                    "type": "address"
                }
            ],
            "name": "transferOwnership",
            "outputs": [],
            "stateMutability": "nonpayable",
            "type": "function"
        }
    ],
    "bytecode": "0x608060405234801561001057600080fd5b50604051610aba380380610aba83398101604081905261002f916100f1565b61003833610085565b600180546001600160a01b038087166001600160a01b03199283161790925560028054928616929091169190911790556003829055600481905561007b85610085565b5050505050610147565b600080546001600160a01b038381166001600160a01b0319831681178455604051919092169283917f8be0079c531659141344cd1fd0a4f28419497f9722a3daafe3b4186f6b6457e09190a35050565b80516001600160a01b03811681146100ec57600080fd5b919050565b600080600080600060a0868803121561010957600080fd5b610112866100d5565b9450610120602087016100d5565b935061012e604087016100d5565b6060870151608090970151959894975095949392505050565b610964806101566000396000f3fe60806040526004361061007b5760003560e01c8063d348b4091161004e578063d348b4091461011b578063e0d925ff1461013e578063e42a96e714610151578063f2fde38b1461017157600080fd5b8063715018a6146100805780638da5cb5b1461009757806391203cf5146100ce578063ac9650d8146100ee575b600080fd5b34801561008c57600080fd5b50610095610191565b005b3480156100a357600080fd5b506000546001600160a01b03165b6040516001600160a01b0390911681526020015b60405180910390f35b3480156100da57600080fd5b506001546100b1906001600160a01b031681565b3480156100fa57600080fd5b5061010e61010936600461067b565b6101a5565b6040516100c59190610740565b34801561012757600080fd5b5061013061029b565b6040519081526020016100c5565b61009561014c3660046107be565b6102c5565b34801561015d57600080fd5b506002546100b1906001600160a01b031681565b34801561017d57600080fd5b5061009561018c3660046107ea565b610409565b610199610482565b6101a360006104dc565b565b60608167ffffffffffffffff8111156101c0576101c0610805565b6040519080825280602002602001820160405280156101f357816020015b60608152602001906001900390816101de5790505b50905060005b8281101561029357610263308585848181106102175761021761081b565b90506020028101906102299190610831565b8080601f01602080910402602001604051908101604052809392919081815260200183838082843760009201919091525061052c92505050565b8282815181106102755761027561081b565b6020026020010181905250808061028b90610895565b9150506101f9565b505b92915050565b60006004546102a960055490565b6102b391906108ae565b6003546102c091906108c5565b905090565b6102cd61029b565b34146103155760405162461bcd60e51b8152602060048201526012602482015271496e73756666696369656e7420507269636560701b60448201526064015b60405180910390fd5b610323600580546001019055565b6002546040516001600160a01b03909116903480156108fc02916000818181858888f1935050505015801561035c573d6000803e3d6000fd5b50600154600254604051632142170760e11b81526001600160a01b0391821660048201528382166024820152604481018590529116906342842e0e90606401600060405180830381600087803b1580156103b557600080fd5b505af11580156103c9573d6000803e3d6000fd5b50506040516001600160a01b038416925033915084907f876822157142f8691ab8d801cd2caae96ea793fea6fdd3ddaf2eb5cfe9efba3690600090a45050565b610411610482565b6001600160a01b0381166104765760405162461bcd60e51b815260206004820152602660248201527f4f776e61626c653a206e6577206f776e657220697320746865207a65726f206160448201526564647265737360d01b606482015260840161030c565b61047f816104dc565b50565b6000546001600160a01b031633146101a35760405162461bcd60e51b815260206004820181905260248201527f4f776e61626c653a2063616c6c6572206973206e6f7420746865206f776e6572604482015260640161030c565b600080546001600160a01b038381166001600160a01b0319831681178455604051919092169283917f8be0079c531659141344cd1fd0a4f28419497f9722a3daafe3b4186f6b6457e09190a35050565b6060610551838360405180606001604052806027815260200161090860279139610558565b9392505050565b6060600080856001600160a01b03168560405161057591906108d8565b600060405180830381855af49150503d80600081146105b0576040519150601f19603f3d011682016040523d82523d6000602084013e6105b5565b606091505b50915091506105c6868383876105d0565b9695505050505050565b6060831561063f578251600003610638576001600160a01b0385163b6106385760405162461bcd60e51b815260206004820152601d60248201527f416464726573733a2063616c6c20746f206e6f6e2d636f6e7472616374000000604482015260640161030c565b5081610649565b6106498383610651565b949350505050565b8151156106615781518083602001fd5b8060405162461bcd60e51b815260040161030c91906108f4565b6000806020838503121561068e57600080fd5b823567ffffffffffffffff808211156106a657600080fd5b818501915085601f8301126106ba57600080fd5b8135818111156106c957600080fd5b8660208260051b85010111156106de57600080fd5b60209290920196919550909350505050565b60005b8381101561070b5781810151838201526020016106f3565b50506000910152565b6000815180845261072c8160208601602086016106f0565b601f01601f19169290920160200192915050565b6000602080830181845280855180835260408601915060408160051b870101925083870160005b8281101561079557603f19888603018452610783858351610714565b94509285019290850190600101610767565b5092979650505050505050565b80356001600160a01b03811681146107b957600080fd5b919050565b600080604083850312156107d157600080fd5b823591506107e1602084016107a2565b90509250929050565b6000602082840312156107fc57600080fd5b610551826107a2565b634e487b7160e01b600052604160045260246000fd5b634e487b7160e01b600052603260045260246000fd5b6000808335601e1984360301811261084857600080fd5b83018035915067ffffffffffffffff82111561086357600080fd5b60200191503681900382131561087857600080fd5b9250929050565b634e487b7160e01b600052601160045260246000fd5b6000600182016108a7576108a761087f565b5060010190565b80820281158282048414176102955761029561087f565b808201808211156102955761029561087f565b600082516108ea8184602087016106f0565b9190910192915050565b602081526000610551602083018461071456fe416464726573733a206c6f772d6c6576656c2064656c65676174652063616c6c206661696c6564a2646970667358221220024a68e591204aeffbac2ecdfbbc129c0c681bdac6f449a19c87cfb851d363ef64736f6c63430008110033",
    "linkReferences": {},
    "deployedLinkReferences": {}
}