{
  "_format": "hh-sol-artifact-1",
  "contractName": "GigaSeller",
  "sourceName": "src/contracts/GigaSeller.sol",
  "abi": [
    {
      "inputs": [
        {
          "internalType": "address",
          "name": "_gigaAdmin",
          "type": "address"
        },
        {
          "internalType": "address",
          "name": "_collectorNft",
          "type": "address"
        },
        {
          "internalType": "address",
          "name": "_escrow",
          "type": "address"
        },
        {
          "internalType": "uint256",
          "name": "_initialPrice",
          "type": "uint256"
        },
        {
          "internalType": "uint256",
          "name": "_increment",
          "type": "uint256"
        }
      ],
      "stateMutability": "nonpayable",
      "type": "constructor"
    },
    {
      "anonymous": false,
      "inputs": [
        {
          "indexed": true,
          "internalType": "uint256",
          "name": "newIncrement",
          "type": "uint256"
        },
        {
          "indexed": true,
          "internalType": "address",
          "name": "updatedBy",
          "type": "address"
        }
      ],
      "name": "IncrementUpdated",
      "type": "event"
    },
    {
      "anonymous": false,
      "inputs": [
        {
          "indexed": true,
          "internalType": "uint256",
          "name": "newPrice",
          "type": "uint256"
        },
        {
          "indexed": true,
          "internalType": "address",
          "name": "updatedBy",
          "type": "address"
        }
      ],
      "name": "InitialPriceUpdated",
      "type": "event"
    },
    {
      "anonymous": false,
      "inputs": [
        {
          "indexed": true,
          "internalType": "uint256",
          "name": "tokenId",
          "type": "uint256"
        },
        {
          "indexed": true,
          "internalType": "address",
          "name": "buyer",
          "type": "address"
        },
        {
          "indexed": true,
          "internalType": "address",
          "name": "transferredTo",
          "type": "address"
        }
      ],
      "name": "NftPurchased",
      "type": "event"
    },
    {
      "anonymous": false,
      "inputs": [
        {
          "indexed": true,
          "internalType": "address",
          "name": "previousOwner",
          "type": "address"
        },
        {
          "indexed": true,
          "internalType": "address",
          "name": "newOwner",
          "type": "address"
        }
      ],
      "name": "OwnershipTransferred",
      "type": "event"
    },
    {
      "inputs": [],
      "name": "calculatePrice",
      "outputs": [
        {
          "internalType": "uint256",
          "name": "",
          "type": "uint256"
        }
      ],
      "stateMutability": "view",
      "type": "function"
    },
    {
      "inputs": [],
      "name": "collectorNft",
      "outputs": [
        {
          "internalType": "contract INft",
          "name": "",
          "type": "address"
        }
      ],
      "stateMutability": "view",
      "type": "function"
    },
    {
      "inputs": [],
      "name": "escrowContract",
      "outputs": [
        {
          "internalType": "address payable",
          "name": "",
          "type": "address"
        }
      ],
      "stateMutability": "view",
      "type": "function"
    },
    {
      "inputs": [
        {
          "internalType": "bytes[]",
          "name": "data",
          "type": "bytes[]"
        }
      ],
      "name": "multicall",
      "outputs": [
        {
          "internalType": "bytes[]",
          "name": "results",
          "type": "bytes[]"
        }
      ],
      "stateMutability": "nonpayable",
      "type": "function"
    },
    {
      "inputs": [],
      "name": "owner",
      "outputs": [
        {
          "internalType": "address",
          "name": "",
          "type": "address"
        }
      ],
      "stateMutability": "view",
      "type": "function"
    },
    {
      "inputs": [
        {
          "internalType": "uint256",
          "name": "_tokenId",
          "type": "uint256"
        },
        {
          "internalType": "address",
          "name": "_transferTo",
          "type": "address"
        }
      ],
      "name": "purchaseNft",
      "outputs": [],
      "stateMutability": "payable",
      "type": "function"
    },
    {
      "inputs": [],
      "name": "renounceOwnership",
      "outputs": [],
      "stateMutability": "nonpayable",
      "type": "function"
    },
    {
      "inputs": [
        {
          "internalType": "address",
          "name": "newOwner",
          "type": "address"
        }
      ],
      "name": "transferOwnership",
      "outputs": [],
      "stateMutability": "nonpayable",
      "type": "function"
    },
    {
      "inputs": [
        {
          "internalType": "uint256",
          "name": "_newIncrement",
          "type": "uint256"
        }
      ],
      "name": "updateIncrement",
      "outputs": [],
      "stateMutability": "nonpayable",
      "type": "function"
    },
    {
      "inputs": [
        {
          "internalType": "uint256",
          "name": "_newAmount",
          "type": "uint256"
        }
      ],
      "name": "updateInitialPrice",
      "outputs": [],
      "stateMutability": "nonpayable",
      "type": "function"
    }
  ],
  "bytecode": "0x608060405234801561001057600080fd5b50604051610c04380380610c0483398101604081905261002f916100f1565b61003833610085565b600180546001600160a01b038087166001600160a01b03199283161790925560028054928616929091169190911790556003829055600481905561007b85610085565b5050505050610147565b600080546001600160a01b038381166001600160a01b0319831681178455604051919092169283917f8be0079c531659141344cd1fd0a4f28419497f9722a3daafe3b4186f6b6457e09190a35050565b80516001600160a01b03811681146100ec57600080fd5b919050565b600080600080600060a0868803121561010957600080fd5b610112866100d5565b9450610120602087016100d5565b935061012e604087016100d5565b6060870151608090970151959894975095949392505050565b610aae806101566000396000f3fe6080604052600436106100915760003560e01c8063d348b40911610059578063d348b40914610151578063e0d925ff14610174578063e42a96e714610187578063f2fde38b146101a7578063f577b1c2146101c757600080fd5b806354d0cfa114610096578063715018a6146100b85780638da5cb5b146100cd57806391203cf514610104578063ac9650d814610124575b600080fd5b3480156100a257600080fd5b506100b66100b13660046107ac565b6101e7565b005b3480156100c457600080fd5b506100b6610224565b3480156100d957600080fd5b506000546001600160a01b03165b6040516001600160a01b0390911681526020015b60405180910390f35b34801561011057600080fd5b506001546100e7906001600160a01b031681565b34801561013057600080fd5b5061014461013f3660046107c5565b610238565b6040516100fb919061088a565b34801561015d57600080fd5b5061016661032e565b6040519081526020016100fb565b6100b6610182366004610908565b610358565b34801561019357600080fd5b506002546100e7906001600160a01b031681565b3480156101b357600080fd5b506100b66101c2366004610934565b6104fd565b3480156101d357600080fd5b506100b66101e23660046107ac565b610576565b6101ef6105b3565b6003819055604051339082907fb5a361907b263f95b9f86dce719bfd342a17efb8f2f165d589e7cf1b4d64113d90600090a350565b61022c6105b3565b610236600061060d565b565b60608167ffffffffffffffff8111156102535761025361094f565b60405190808252806020026020018201604052801561028657816020015b60608152602001906001900390816102715790505b50905060005b82811015610326576102f6308585848181106102aa576102aa610965565b90506020028101906102bc919061097b565b8080601f01602080910402602001604051908101604052809392919081815260200183838082843760009201919091525061065d92505050565b82828151811061030857610308610965565b6020026020010181905250808061031e906109df565b91505061028c565b505b92915050565b600060045461033c60055490565b61034691906109f8565b6003546103539190610a0f565b905090565b61036061032e565b34146103a85760405162461bcd60e51b8152602060048201526012602482015271496e73756666696369656e7420507269636560701b60448201526064015b60405180910390fd5b6103b6600580546001019055565b6002546040516000916001600160a01b03169034908381818185875af1925050503d8060008114610403576040519150601f19603f3d011682016040523d82523d6000602084013e610408565b606091505b50509050806104505760405162461bcd60e51b81526020600482015260146024820152732330b4b632b2103a379039b2b7321022ba3432b960611b604482015260640161039f565b600154600254604051632142170760e11b81526001600160a01b0391821660048201528482166024820152604481018690529116906342842e0e90606401600060405180830381600087803b1580156104a857600080fd5b505af11580156104bc573d6000803e3d6000fd5b50506040516001600160a01b038516925033915085907f876822157142f8691ab8d801cd2caae96ea793fea6fdd3ddaf2eb5cfe9efba3690600090a4505050565b6105056105b3565b6001600160a01b03811661056a5760405162461bcd60e51b815260206004820152602660248201527f4f776e61626c653a206e6577206f776e657220697320746865207a65726f206160448201526564647265737360d01b606482015260840161039f565b6105738161060d565b50565b61057e6105b3565b6004819055604051339082907f89e222c2befeb57d6f83d1dd4092c4a2d7332e3a42ed7bccd0391906867d7cf290600090a350565b6000546001600160a01b031633146102365760405162461bcd60e51b815260206004820181905260248201527f4f776e61626c653a2063616c6c6572206973206e6f7420746865206f776e6572604482015260640161039f565b600080546001600160a01b038381166001600160a01b0319831681178455604051919092169283917f8be0079c531659141344cd1fd0a4f28419497f9722a3daafe3b4186f6b6457e09190a35050565b60606106828383604051806060016040528060278152602001610a5260279139610689565b9392505050565b6060600080856001600160a01b0316856040516106a69190610a22565b600060405180830381855af49150503d80600081146106e1576040519150601f19603f3d011682016040523d82523d6000602084013e6106e6565b606091505b50915091506106f786838387610701565b9695505050505050565b60608315610770578251600003610769576001600160a01b0385163b6107695760405162461bcd60e51b815260206004820152601d60248201527f416464726573733a2063616c6c20746f206e6f6e2d636f6e7472616374000000604482015260640161039f565b508161077a565b61077a8383610782565b949350505050565b8151156107925781518083602001fd5b8060405162461bcd60e51b815260040161039f9190610a3e565b6000602082840312156107be57600080fd5b5035919050565b600080602083850312156107d857600080fd5b823567ffffffffffffffff808211156107f057600080fd5b818501915085601f83011261080457600080fd5b81358181111561081357600080fd5b8660208260051b850101111561082857600080fd5b60209290920196919550909350505050565b60005b8381101561085557818101518382015260200161083d565b50506000910152565b6000815180845261087681602086016020860161083a565b601f01601f19169290920160200192915050565b6000602080830181845280855180835260408601915060408160051b870101925083870160005b828110156108df57603f198886030184526108cd85835161085e565b945092850192908501906001016108b1565b5092979650505050505050565b80356001600160a01b038116811461090357600080fd5b919050565b6000806040838503121561091b57600080fd5b8235915061092b602084016108ec565b90509250929050565b60006020828403121561094657600080fd5b610682826108ec565b634e487b7160e01b600052604160045260246000fd5b634e487b7160e01b600052603260045260246000fd5b6000808335601e1984360301811261099257600080fd5b83018035915067ffffffffffffffff8211156109ad57600080fd5b6020019150368190038213156109c257600080fd5b9250929050565b634e487b7160e01b600052601160045260246000fd5b6000600182016109f1576109f16109c9565b5060010190565b8082028115828204841417610328576103286109c9565b80820180821115610328576103286109c9565b60008251610a3481846020870161083a565b9190910192915050565b602081526000610682602083018461085e56fe416464726573733a206c6f772d6c6576656c2064656c65676174652063616c6c206661696c6564a2646970667358221220a0a96316f2752702061650e8c34537e153d99acb2b7ce307019b931de1d4b23264736f6c63430008110033",
  "linkReferences": {},
  "deployedLinkReferences": {}
}